{
  "address": "0x5fDA6253b8e2206a6558c8b198E82F54E9b18598",
  "abi": [
    {
      "inputs": [
        {
          "internalType": "address",
          "name": "_owner",
          "type": "address"
        },
        {
          "internalType": "uint256",
          "name": "_executorBondAmount",
          "type": "uint256"
        },
        {
          "internalType": "uint256",
          "name": "_executionLockTime",
          "type": "uint256"
        },
        {
          "internalType": "uint256",
          "name": "_ownerBondAmount",
          "type": "uint256"
        }
      ],
      "stateMutability": "nonpayable",
      "type": "constructor"
    },
    {
      "inputs": [],
      "name": "managerImplementation",
      "outputs": [
        {
          "internalType": "contract ChugSplashManager",
          "name": "",
          "type": "address"
        }
      ],
      "stateMutability": "view",
      "type": "function"
    },
    {
      "inputs": [],
      "name": "proxyUpdater",
      "outputs": [
        {
          "internalType": "contract ProxyUpdater",
          "name": "",
          "type": "address"
        }
      ],
      "stateMutability": "view",
      "type": "function"
    },
    {
      "inputs": [],
      "name": "registryImplementation",
      "outputs": [
        {
          "internalType": "contract ChugSplashRegistry",
          "name": "",
          "type": "address"
        }
      ],
      "stateMutability": "view",
      "type": "function"
    },
    {
      "inputs": [],
      "name": "registryProxy",
      "outputs": [
        {
          "internalType": "contract Proxy",
          "name": "",
          "type": "address"
        }
      ],
      "stateMutability": "view",
      "type": "function"
    },
    {
      "inputs": [],
      "name": "rootManagerProxy",
      "outputs": [
        {
          "internalType": "contract ChugSplashManagerProxy",
          "name": "",
          "type": "address"
        }
      ],
      "stateMutability": "view",
      "type": "function"
    }
  ],
  "transactionHash": "0x90b145f94efd052bb8660855b92dbd07d35f66b3f1a42db3edb5616569464c77",
  "args": [
    "0xf39Fd6e51aad88F6F4ce6aB8827279cffFb92266",
    "100000000000000000",
    900,
    "100000000000000000"
  ],
  "numDeployments": 1,
  "solcInputHash": "5cbfa1dd908734270735195a55e6b06e",
  "bytecode": "0x60806040523480156200001157600080fd5b506040516200954a3803806200954a8339810160408190526200003491620004c8565b604051600090620000459062000483565b8190604051809103906000f590508015801562000066573d6000803e3d6000fd5b50600080546001600160a01b0319166001600160a01b0392909216919091178155604051620000fd9030908390620000a16020820162000490565b601f1982820381018352601f9091011660408181523060208301520160408051601f1981840301815290829052620000dd929160200162000548565b6040516020818303038152906040526200041260201b620001351760201c565b90506000801b818660008054906101000a90046001600160a01b03168787876040516200012a906200049e565b6001600160a01b03968716815260e060208201819052600c908201526b2937b7ba1026b0b730b3b2b960a11b6101008201529486166040860152949092166060840152608083015260a082015260c0810191909152610120018190604051809103906000f5905080158015620001a4573d6000803e3d6000fd5b50600380546001600160a01b0319166001600160a01b0392909216918217905560405160009183918890620001e09082908a906024016200057b565b60408051601f198184030181529181526020820180516001600160e01b031663e0921f8560e01b179052516200021690620004ac565b620002259493929190620005c1565b8190604051809103906000f590508015801562000246573d6000803e3d6000fd5b50600480546001600160a01b0319166001600160a01b0392831617905560008054600354604051929391821692869291909116906200028590620004ba565b6001600160a01b039384168152602081019290925290911660408201526060018190604051809103906000f5905080158015620002c6573d6000803e3d6000fd5b50600180546001600160a01b0319166001600160a01b03929092169190911790556040516000903090620002fa9062000490565b6001600160a01b0390911681526020018190604051809103906000f59050801580156200032b573d6000803e3d6000fd5b50600280546001600160a01b0319166001600160a01b03928316908117909155600154604051631b2ce7f360e11b81529216600483015290633659cfe690602401600060405180830381600087803b1580156200038757600080fd5b505af11580156200039c573d6000803e3d6000fd5b5050600254600480546040516308f2839760e41b81526001600160a01b03918216928101929092529091169250638f2839709150602401600060405180830381600087803b158015620003ee57600080fd5b505af115801562000403573d6000803e3d6000fd5b50505050505050505062000619565b8051602091820120604080517fff000000000000000000000000000000000000000000000000000000000000008185015260609590951b6001600160601b03191660218601526035850193909352605580850191909152825180850390910181526075909301909152815191012090565b60b3806200081d83390190565b61094180620008d083390190565b61529e806200121183390190565b61123380620064af83390190565b611e6880620076e283390190565b60008060008060808587031215620004df57600080fd5b84516001600160a01b0381168114620004f757600080fd5b60208601516040870151606090970151919890975090945092505050565b60005b838110156200053257818101518382015260200162000518565b8381111562000542576000848401525b50505050565b600083516200055c81846020880162000515565b8351908301906200057281836020880162000515565b01949350505050565b606081526000620005a860608301600c81526b2937b7ba1026b0b730b3b2b960a11b602082015260400190565b6001600160a01b03949094166020830152506040015290565b600060018060a01b0380871683528086166020840152808516604084015250608060608301528251806080840152620006028160a085016020870162000515565b601f01601f19169190910160a00195945050505050565b6101f480620006296000396000f3fe608060405234801561001057600080fd5b50600436106100675760003560e01c80637bafa3c7116100505780637bafa3c7146100d55780639f4a5337146100f5578063edd0fd7e1461011557600080fd5b8063218d984b1461006c578063725a38a2146100b5575b600080fd5b60025461008c9073ffffffffffffffffffffffffffffffffffffffff1681565b60405173ffffffffffffffffffffffffffffffffffffffff909116815260200160405180910390f35b60045461008c9073ffffffffffffffffffffffffffffffffffffffff1681565b60005461008c9073ffffffffffffffffffffffffffffffffffffffff1681565b60035461008c9073ffffffffffffffffffffffffffffffffffffffff1681565b60015461008c9073ffffffffffffffffffffffffffffffffffffffff1681565b8051602091820120604080517fff000000000000000000000000000000000000000000000000000000000000008185015260609590951b7fffffffffffffffffffffffffffffffffffffffff000000000000000000000000166021860152603585019390935260558085019190915282518085039091018152607590930190915281519101209056fea264697066735822122085da5e2707371fca666d543dba9109f840fb73bcd7a353cd9ba0b6556371343f64736f6c634300080f00336080604052348015600f57600080fd5b5060958061001e6000396000f3fe6080604052348015600f57600080fd5b506004361060285760003560e01c80639b0b0fda14602d575b600080fd5b603c6038366004603e565b9055565b005b60008060408385031215605057600080fd5b5050803592602090910135915056fea2646970667358221220b3ff62ad33cfb05d37dfa174e239724b87dc317e6ad8f271ae455ed680dfdbbd64736f6c634300080f0033608060405234801561001057600080fd5b5060405161094138038061094183398101604081905261002f916100b2565b6100388161003e565b506100e2565b60006100566000805160206109218339815191525490565b600080516020610921833981519152839055604080516001600160a01b038084168252851660208201529192507f7e644d79422f17c01e4894b5f4f588d331ebfa28653d42ae832dc59e38c9798f910160405180910390a15050565b6000602082840312156100c457600080fd5b81516001600160a01b03811681146100db57600080fd5b9392505050565b610830806100f16000396000f3fe60806040526004361061005e5760003560e01c80635c60da1b116100435780635c60da1b146100be5780638f283970146100f8578063f851a440146101185761006d565b80633659cfe6146100755780634f1ef286146100955761006d565b3661006d5761006b61012d565b005b61006b61012d565b34801561008157600080fd5b5061006b6100903660046106d9565b610224565b6100a86100a33660046106f4565b610296565b6040516100b59190610777565b60405180910390f35b3480156100ca57600080fd5b506100d3610419565b60405173ffffffffffffffffffffffffffffffffffffffff90911681526020016100b5565b34801561010457600080fd5b5061006b6101133660046106d9565b6104b0565b34801561012457600080fd5b506100d3610517565b60006101577f360894a13ba1a3210667c828492db98dca3e2076cc3735a920a3ca505d382bbc5490565b905073ffffffffffffffffffffffffffffffffffffffff8116610201576040517f08c379a000000000000000000000000000000000000000000000000000000000815260206004820152602560248201527f50726f78793a20696d706c656d656e746174696f6e206e6f7420696e6974696160448201527f6c697a656400000000000000000000000000000000000000000000000000000060648201526084015b60405180910390fd5b3660008037600080366000845af43d6000803e8061021e573d6000fd5b503d6000f35b7fb53127684a568b3173ae13b9f8a6016e243e63b6e8ee1178d6a717850b5d61035473ffffffffffffffffffffffffffffffffffffffff163373ffffffffffffffffffffffffffffffffffffffff16148061027d575033155b1561028e5761028b816105a3565b50565b61028b61012d565b60606102c07fb53127684a568b3173ae13b9f8a6016e243e63b6e8ee1178d6a717850b5d61035490565b73ffffffffffffffffffffffffffffffffffffffff163373ffffffffffffffffffffffffffffffffffffffff1614806102f7575033155b1561040a57610305846105a3565b6000808573ffffffffffffffffffffffffffffffffffffffff16858560405161032f9291906107ea565b600060405180830381855af49150503d806000811461036a576040519150601f19603f3d011682016040523d82523d6000602084013e61036f565b606091505b509150915081610401576040517f08c379a000000000000000000000000000000000000000000000000000000000815260206004820152603960248201527f50726f78793a2064656c656761746563616c6c20746f206e657720696d706c6560448201527f6d656e746174696f6e20636f6e7472616374206661696c65640000000000000060648201526084016101f8565b91506104129050565b61041261012d565b9392505050565b60006104437fb53127684a568b3173ae13b9f8a6016e243e63b6e8ee1178d6a717850b5d61035490565b73ffffffffffffffffffffffffffffffffffffffff163373ffffffffffffffffffffffffffffffffffffffff16148061047a575033155b156104a557507f360894a13ba1a3210667c828492db98dca3e2076cc3735a920a3ca505d382bbc5490565b6104ad61012d565b90565b7fb53127684a568b3173ae13b9f8a6016e243e63b6e8ee1178d6a717850b5d61035473ffffffffffffffffffffffffffffffffffffffff163373ffffffffffffffffffffffffffffffffffffffff161480610509575033155b1561028e5761028b8161060b565b60006105417fb53127684a568b3173ae13b9f8a6016e243e63b6e8ee1178d6a717850b5d61035490565b73ffffffffffffffffffffffffffffffffffffffff163373ffffffffffffffffffffffffffffffffffffffff161480610578575033155b156104a557507fb53127684a568b3173ae13b9f8a6016e243e63b6e8ee1178d6a717850b5d61035490565b7f360894a13ba1a3210667c828492db98dca3e2076cc3735a920a3ca505d382bbc81905560405173ffffffffffffffffffffffffffffffffffffffff8216907fbc7cd75a20ee27fd9adebab32041f755214dbc6bffa90cc0225b39da2e5c2d3b90600090a250565b60006106357fb53127684a568b3173ae13b9f8a6016e243e63b6e8ee1178d6a717850b5d61035490565b7fb53127684a568b3173ae13b9f8a6016e243e63b6e8ee1178d6a717850b5d61038390556040805173ffffffffffffffffffffffffffffffffffffffff8084168252851660208201529192507f7e644d79422f17c01e4894b5f4f588d331ebfa28653d42ae832dc59e38c9798f910160405180910390a15050565b803573ffffffffffffffffffffffffffffffffffffffff811681146106d457600080fd5b919050565b6000602082840312156106eb57600080fd5b610412826106b0565b60008060006040848603121561070957600080fd5b610712846106b0565b9250602084013567ffffffffffffffff8082111561072f57600080fd5b818601915086601f83011261074357600080fd5b81358181111561075257600080fd5b87602082850101111561076457600080fd5b6020830194508093505050509250925092565b600060208083528351808285015260005b818110156107a457858101830151858201604001528201610788565b818111156107b6576000604083870101525b50601f017fffffffffffffffffffffffffffffffffffffffffffffffffffffffffffffffe016929092016040019392505050565b818382376000910190815291905056fea2646970667358221220120210f19dd8be0e46312b3b9a2148bbb98ec24cce2aa05af1c3d1fe69f55b2b64736f6c634300080f0033b53127684a568b3173ae13b9f8a6016e243e63b6e8ee1178d6a717850b5d61036101006040523480156200001257600080fd5b506040516200529e3803806200529e833981016040819052620000359162000331565b6001600160a01b03808816608052841660a05260e082905260c08190526200005f8686856200006c565b50505050505050620005c3565b600054610100900460ff16158080156200008d5750600054600160ff909116105b80620000bd5750620000aa30620001c060201b620027461760201c565b158015620000bd575060005460ff166001145b620001265760405162461bcd60e51b815260206004820152602e60248201527f496e697469616c697a61626c653a20636f6e747261637420697320616c72656160448201526d191e481a5b9a5d1a585b1a5e995960921b60648201526084015b60405180910390fd5b6000805460ff1916600117905580156200014a576000805461ff0019166101001790555b6065620001588582620004f7565b50606782905562000168620001cf565b620001738362000237565b8015620001ba576000805461ff0019169055604051600181527f7f26b83ff96e1f2b6a682f133852f6798a09c465da95921460cefb38474024989060200160405180910390a15b50505050565b6001600160a01b03163b151590565b600054610100900460ff166200022b5760405162461bcd60e51b815260206004820152602b60248201526000805160206200527e83398151915260448201526a6e697469616c697a696e6760a81b60648201526084016200011d565b6200023562000289565b565b603380546001600160a01b038381166001600160a01b0319831681179093556040519116919082907f8be0079c531659141344cd1fd0a4f28419497f9722a3daafe3b4186f6b6457e090600090a35050565b600054610100900460ff16620002e55760405162461bcd60e51b815260206004820152602b60248201526000805160206200527e83398151915260448201526a6e697469616c697a696e6760a81b60648201526084016200011d565b620002353362000237565b6001600160a01b03811681146200030657600080fd5b50565b634e487b7160e01b600052604160045260246000fd5b80516200032c81620002f0565b919050565b600080600080600080600060e0888a0312156200034d57600080fd5b87516200035a81620002f0565b602089810151919850906001600160401b03808211156200037a57600080fd5b818b0191508b601f8301126200038f57600080fd5b815181811115620003a457620003a462000309565b604051601f8201601f19908116603f01168101908382118183101715620003cf57620003cf62000309565b816040528281528e86848701011115620003e857600080fd5b600093505b828410156200040c5784840186015181850187015292850192620003ed565b828411156200041e5760008684830101525b809b5050505050505062000435604089016200031f565b945062000445606089016200031f565b93506080880151925060a0880151915060c0880151905092959891949750929550565b600181811c908216806200047d57607f821691505b6020821081036200049e57634e487b7160e01b600052602260045260246000fd5b50919050565b601f821115620004f257600081815260208120601f850160051c81016020861015620004cd5750805b601f850160051c820191505b81811015620004ee57828155600101620004d9565b5050505b505050565b81516001600160401b0381111562000513576200051362000309565b6200052b8162000524845462000468565b84620004a4565b602080601f8311600181146200056357600084156200054a5750858301515b600019600386901b1c1916600185901b178555620004ee565b600085815260208120601f198616915b82811015620005945788860151825594840194600190910190840162000573565b5085821015620005b35787850151600019600388901b60f8161c191681555b5050505050600190811b01905550565b60805160a05160c05160e051614c18620006666000396000818161064c0152611ada0152600081816102aa01528181611e4401526125990152600081816104010152612de90152600081816103cb0152818161078801528181610b5d01528181610ee7015281816117b5015281816118f501528181611c32015281816120f1015281816124f501528181612aab01528181612cdb01526133a70152614c186000f3fe608060405260043610620001c75760003560e01c80638953764311620000f3578063e0921f851162000095578063f103fea5116200006c578063f103fea514620005f1578063f2fde38b1462000609578063f6326fb3146200062e578063fff81d4c146200063857600080fd5b8063e0921f851462000582578063e535c37814620005a7578063e579df3a14620005cc57600080fd5b8063bd66528a11620000ca578063bd66528a146200050e578063c64205d11462000525578063da0d962a146200053d57600080fd5b80638953764314620004485780638da5cb5b146200046d57806393862c3b146200048d57600080fd5b8063487814981162000169578063715018a61162000140578063715018a6146200039f5780637b10399914620003b75780637bafa3c714620003ed5780637d55e736146200042357600080fd5b806348781498146200032557806361f5499f146200034a5780636e5dec72146200038757600080fd5b80632e0a6960116200019e5780632e0a6960146200029657806340ae662e14620002db5780634782f779146200030057600080fd5b8063039ea1d8146200020157806306fdde031462000228578063165117be146200025857600080fd5b36620001fc57604051349033907f6c703791f399558807424f489ccd811c72b4ff0b74af547264fad7c646776df090600090a3005b600080fd5b3480156200020e57600080fd5b5062000226620002203660046200396e565b6200066e565b005b3480156200023557600080fd5b5062000240620007f1565b6040516200024f9190620039e5565b60405180910390f35b3480156200026557600080fd5b506200027d6200027736600462003b0a565b62000887565b6040516001600160a01b0390911681526020016200024f565b348015620002a357600080fd5b50620002cc7f000000000000000000000000000000000000000000000000000000000000000081565b6040519081526020016200024f565b348015620002e857600080fd5b5062000226620002fa36600462003b4b565b62000982565b3480156200030d57600080fd5b50620002266200031f36600462003bb5565b62000bca565b3480156200033257600080fd5b50620002266200034436600462003be4565b62000d79565b3480156200035757600080fd5b506200027d620003693660046200396e565b6000908152606860205260409020600401546001600160a01b031690565b3480156200039457600080fd5b50620002cc60675481565b348015620003ac57600080fd5b506200022662001188565b348015620003c457600080fd5b506200027d7f000000000000000000000000000000000000000000000000000000000000000081565b348015620003fa57600080fd5b506200027d7f000000000000000000000000000000000000000000000000000000000000000081565b3480156200043057600080fd5b50620002266200044236600462003cc5565b620011a0565b3480156200045557600080fd5b50620002cc6200046736600462003b4b565b62001971565b3480156200047a57600080fd5b506033546001600160a01b03166200027d565b3480156200049a57600080fd5b50620004fb620004ac3660046200396e565b606860205260009081526040902080546002820154600383015460049093015460ff9283169391926001600160a01b038216917401000000000000000000000000000000000000000090041685565b6040516200024f95949392919062003de9565b620002266200051f3660046200396e565b620019a9565b3480156200053257600080fd5b50620002cc60665481565b3480156200054a57600080fd5b506200027d6200055c36600462003b0a565b80516020818301810180516069825292820191909301209152546001600160a01b031681565b3480156200058f57600080fd5b5062000226620005a136600462003e2c565b62001c95565b348015620005b457600080fd5b5062000226620005c63660046200396e565b62001e38565b348015620005d957600080fd5b5062000226620005eb36600462003e2c565b6200215b565b348015620005fe57600080fd5b50620002266200239b565b3480156200061657600080fd5b50620002266200062836600462003e8c565b62002681565b6200022662002717565b3480156200064557600080fd5b50620002cc7f000000000000000000000000000000000000000000000000000000000000000081565b6200067862002755565b60665415620006f45760405162461bcd60e51b815260206004820152602d60248201527f4368756753706c6173684d616e616765723a2062756e646c652069732063757260448201527f72656e746c79206163746976650000000000000000000000000000000000000060648201526084015b60405180910390fd5b60678190556040518181527f30b0150626117543803dc6a5afd7a0b9ae55705463b89140c76b516f2f263fe69060200160405180910390a16040517fea0a523700000000000000000000000000000000000000000000000000000000815260206004820152601560248201527f4578656375746f72426f6e64416d6f756e74536574000000000000000000000060448201527f00000000000000000000000000000000000000000000000000000000000000006001600160a01b03169063ea0a523790606401600060405180830381600087803b158015620007d557600080fd5b505af1158015620007ea573d6000803e3d6000fd5b5050505050565b60658054620008009062003eac565b80601f01602080910402602001604051908101604052809291908181526020018280546200082e9062003eac565b80156200087f5780601f1062000853576101008083540402835291602001916200087f565b820191906000526020600020905b8154815290600101906020018083116200086157829003601f168201915b505050505081565b60006200097c30838051906020012060405180602001620008a8906200389d565b601f1982820381018352601f9091011660408181523060208301520160408051601f1981840301815290829052620008e4929160200162003f01565b6040516020818303038152906040528051602091820120604080517fff000000000000000000000000000000000000000000000000000000000000008185015260609590951b7fffffffffffffffffffffffffffffffffffffffff0000000000000000000000001660218601526035850193909352605580850191909152825180850390910181526075909301909152815191012090565b92915050565b6200098c62002755565b60006200099b84848462001971565b6000818152606860205260408120919250815460ff166004811115620009c557620009c562003dba565b1462000a3a5760405162461bcd60e51b815260206004820152602860248201527f4368756753706c6173684d616e616765723a2062756e646c6520616c7265616460448201527f79206578697374730000000000000000000000000000000000000000000000006064820152608401620006eb565b80547fffffffffffffffffffffffffffffffffffffffffffffffffffffffffffffff001660011781558367ffffffffffffffff81111562000a7f5762000a7f620039fa565b60405190808252806020026020018201604052801562000aa9578160200160208202803683370190505b50805162000ac2916001840191602090910190620038ab565b50817fb2df33274c9e73b574e929fc362109e53cf63f73b3d0408013417392b87cf0cd86868660405162000af99392919062003f34565b60405180910390a26040517fea0a523700000000000000000000000000000000000000000000000000000000815260206004820152601860248201527f4368756753706c61736842756e646c6550726f706f736564000000000000000060448201527f00000000000000000000000000000000000000000000000000000000000000006001600160a01b03169063ea0a523790606401600060405180830381600087803b15801562000baa57600080fd5b505af115801562000bbf573d6000803e3d6000fd5b505050505050505050565b62000bd462002755565b60665462000c4b5760405162461bcd60e51b815260206004820152603f60248201527f4368756753706c6173684d616e616765723a2063616e6e6f742077697468647260448201527f61772066756e6473207768696c652062756e646c6520697320616374697665006064820152608401620006eb565b604080516000808252602082019092526001600160a01b03841690839060405162000c77919062003f5e565b60006040518083038185875af1925050503d806000811462000cb6576040519150601f19603f3d011682016040523d82523d6000602084013e62000cbb565b606091505b505090508062000d345760405162461bcd60e51b815260206004820152603060248201527f4368756753706c6173684d616e616765723a2063616c6c20746f20776974686460448201527f7261772066756e6473206661696c6564000000000000000000000000000000006064820152608401620006eb565b6040518281526001600160a01b0384169033907fc81b1761d304f16ef2aeae3a8611d9bd1d618adfff67d5157365cfb1251395329060200160405180910390a3505050565b62000d8362002755565b6000606a8360405162000d97919062003f5e565b90815260405190819003602001902054905060008162000dc45762000dbc8462000887565b905062000e33565b60405162461bcd60e51b815260206004820152603c60248201527f4368756753706c6173684d616e616765723a20696e76616c69642070726f787960448201527f20747970652c206d7573742062652064656661756c742070726f7879000000006064820152608401620006eb565b806001600160a01b03163b60000362000eb55760405162461bcd60e51b815260206004820152602860248201527f4368756753706c6173684d616e616765723a2070726f7879206973206e6f742060448201527f6465706c6f7965640000000000000000000000000000000000000000000000006064820152608401620006eb565b6040517f72c6838f000000000000000000000000000000000000000000000000000000008152600481018390526000907f00000000000000000000000000000000000000000000000000000000000000006001600160a01b0316906372c6838f90602401602060405180830381865afa15801562000f37573d6000803e3d6000fd5b505050506040513d601f19601f8201168201806040525081019062000f5d919062003f7c565b90506001600160a01b03811662000fdd5760405162461bcd60e51b815260206004820152602c60248201527f4368756753706c6173684d616e616765723a2070726f7879207479706520686160448201527f73206e6f206164617074657200000000000000000000000000000000000000006064820152608401620006eb565b6040516001600160a01b03838116602483015285811660448301526000919083169060640160408051601f198184030181529181526020820180517bffffffffffffffffffffffffffffffffffffffffffffffffffffffff167f7eff275e000000000000000000000000000000000000000000000000000000001790525162001067919062003f5e565b600060405180830381855af49150503d8060008114620010a4576040519150601f19603f3d011682016040523d82523d6000602084013e620010a9565b606091505b5050905080620011225760405162461bcd60e51b815260206004820152603c60248201527f4368756753706c6173684d616e616765723a2064656c656761746563616c6c2060448201527f746f206368616e67652070726f78792061646d696e206661696c6564000000006064820152608401620006eb565b83836001600160a01b0316876040516200113d919062003f5e565b60405180910390207f1a7c49d4bb8fb70e8ee0a2490cd71cedaecb42439b93b431f7cb9d78968211d9888a6040516200117892919062003f9c565b60405180910390a4505050505050565b6200119262002755565b6200119e6000620027b1565b565b606654620012175760405162461bcd60e51b815260206004820152603c60248201527f4368756753706c6173684d616e616765723a206e6f2062756e646c652068617360448201527f206265656e20617070726f76656420666f7220657865637574696f6e000000006064820152608401620006eb565b60665460009081526068602052604090206002815460ff16600481111562001243576200124362003dba565b14620012b85760405162461bcd60e51b815260206004820152602960248201527f4368756753706c6173684d616e616765723a2062756e646c65206973206e6f7460448201527f20617070726f76656400000000000000000000000000000000000000000000006064820152608401620006eb565b806001018381548110620012d057620012d062003fc0565b60009182526020918290209181049091015460ff601f9092166101000a90041615620013655760405162461bcd60e51b815260206004820152603360248201527f4368756753706c6173684d616e616765723a20616374696f6e2068617320616c60448201527f7265616479206265656e206578656375746564000000000000000000000000006064820152608401620006eb565b6066546000908152606860205260409020600401546001600160a01b0316338114620014205760405162461bcd60e51b815260206004820152604760248201527f4368756753706c6173684d616e616765723a2063616c6c6572206973206e6f7460448201527f20617070726f766564206578656375746f7220666f722061637469766520627560648201527f6e646c6520494400000000000000000000000000000000000000000000000000608482015260a401620006eb565b620014706066548660000151876020015188604001516040516020016200144a9392919062003fef565b60405160208183030381529060405280519060200120868686600101805490506200281b565b620014e45760405162461bcd60e51b815260206004820152602e60248201527f4368756753706c6173684d616e616765723a20696e76616c69642062756e646c60448201527f6520616374696f6e2070726f6f660000000000000000000000000000000000006064820152608401620006eb565b6000606a8660000151604051620014fc919062003f5e565b9081526040519081900360200190205490506000816200161d578651620015239062000887565b9050806001600160a01b03163b6000036200161757865180516020909101206040516000908290309062001557906200389d565b6001600160a01b0390911681526020018190604051809103906000f590508015801562001588573d6000803e3d6000fd5b509050826001600160a01b0316816001600160a01b031614620016145760405162461bcd60e51b815260206004820152603260248201527f4368756753706c6173684d616e616765723a2050726f787920776173206e6f7460448201527f206372656174656420636f72726563746c7900000000000000000000000000006064820152608401620006eb565b50505b6200164c565b8651604051606991620016309162003f5e565b908152604051908190036020019020546001600160a01b031690505b60008760200151600181111562001667576200166762003dba565b0362001684576200167e8183896040015162002a79565b620016b6565b6000808860400151806020019051810190620016a191906200403b565b91509150620016b38385848462002ca9565b50505b600284018054906000620016ca836200408f565b91905055506001846001018781548110620016e957620016e962003fc0565b90600052602060002090602091828204019190066101000a81548160ff021916908315150217905550336001600160a01b03166066547f3ea3ac3a68c8cd60b23bb1969f51c705a0bc23975e43e4e49e556b033d0d7968886040516200175191815260200190565b60405180910390a36040517fea0a523700000000000000000000000000000000000000000000000000000000815260206004820152601860248201527f4368756753706c617368416374696f6e4578656375746564000000000000000060448201527f00000000000000000000000000000000000000000000000000000000000000006001600160a01b03169063ea0a523790606401600060405180830381600087803b1580156200180257600080fd5b505af115801562001817573d6000803e3d6000fd5b505050506001840154600285015403620019685783547fffffffffffffffffffffffffffffffffffffffffffffffffffffffffffffff001660031784556066805460009091556002850154604051908152339082907f3340c852fb0c3d71565cea9b0ec2a6b4ff68cd164b3d30298b0d442917a864e99060200160405180910390a36040517fea0a523700000000000000000000000000000000000000000000000000000000815260206004820152601960248201527f4368756753706c61736842756e646c65436f6d706c657465640000000000000060448201527f00000000000000000000000000000000000000000000000000000000000000006001600160a01b03169063ea0a523790606401600060405180830381600087803b1580156200194257600080fd5b505af115801562001957573d6000803e3d6000fd5b50505050620019668162002f5f565b505b50505050505050565b60008383836040516020016200198a9392919062003f34565b6040516020818303038152906040528051906020012090509392505050565b346067541462001a225760405162461bcd60e51b815260206004820152603160248201527f4368756753706c6173684d616e616765723a20696e636f72726563742065786560448201527f6375746f7220626f6e6420616d6f756e740000000000000000000000000000006064820152608401620006eb565b60008181526068602052604090205460ff16600281600481111562001a4b5762001a4b62003dba565b1462001ac05760405162461bcd60e51b815260206004820152602760248201527f4368756753706c6173684d616e616765723a2062756e646c65206973206e6f7460448201527f20616374697665000000000000000000000000000000000000000000000000006064820152608401620006eb565b6000828152606860205260409020600381015462001b00907f000000000000000000000000000000000000000000000000000000000000000090620040ca565b421162001b765760405162461bcd60e51b815260206004820152603860248201527f4368756753706c6173684d616e616765723a2062756e646c6520616c7265616460448201527f7920636c61696d656420627920616e206578656375746f7200000000000000006064820152608401620006eb565b4260038201556004810180547fffffffffffffffffffffffff0000000000000000000000000000000000000000163390811790915560405184907f9c35c08e73107e9f847988f211733e57a1786f3361e3b41845d30ac0264e5c1790600090a36040517fea0a523700000000000000000000000000000000000000000000000000000000815260206004820152601760248201527f4368756753706c61736842756e646c65436c61696d656400000000000000000060448201527f00000000000000000000000000000000000000000000000000000000000000006001600160a01b03169063ea0a5237906064015b600060405180830381600087803b15801562001c8057600080fd5b505af115801562001968573d6000803e3d6000fd5b600054610100900460ff161580801562001cb65750600054600160ff909116105b8062001cd25750303b15801562001cd2575060005460ff166001145b62001d465760405162461bcd60e51b815260206004820152602e60248201527f496e697469616c697a61626c653a20636f6e747261637420697320616c72656160448201527f647920696e697469616c697a65640000000000000000000000000000000000006064820152608401620006eb565b600080547fffffffffffffffffffffffffffffffffffffffffffffffffffffffffffffff00166001179055801562001da557600080547fffffffffffffffffffffffffffffffffffffffffffffffffffffffffffff00ff166101001790555b606562001db3858262004134565b50606782905562001dc3620033df565b62001dce83620027b1565b801562001e3257600080547fffffffffffffffffffffffffffffffffffffffffffffffffffffffffffff00ff169055604051600181527f7f26b83ff96e1f2b6a682f133852f6798a09c465da95921460cefb38474024989060200160405180910390a15b50505050565b62001e4262002755565b7f000000000000000000000000000000000000000000000000000000000000000047101562001eda5760405162461bcd60e51b815260206004820152603260248201527f4368756753706c6173684d616e616765723a20696e73756666696369656e742060448201527f62616c616e636520696e206d616e6167657200000000000000000000000000006064820152608401620006eb565b60008181526068602052604090206001815460ff16600481111562001f035762001f0362003dba565b1462001f9e5760405162461bcd60e51b815260206004820152605260248201527f4368756753706c6173684d616e616765723a2062756e646c6520646f6573206e60448201527f6f74206578697374206f722068617320616c7265616479206265656e2061707060648201527f726f766564206f7220636f6d706c657465640000000000000000000000000000608482015260a401620006eb565b606654156200203c5760405162461bcd60e51b815260206004820152604960248201527f4368756753706c6173684d616e616765723a20616e6f746865722062756e646c60448201527f6520686173206265656e20617070726f76656420616e64206e6f74207965742060648201527f636f6d706c657465640000000000000000000000000000000000000000000000608482015260a401620006eb565b606682905580547fffffffffffffffffffffffffffffffffffffffffffffffffffffffffffffff0016600217815560405182907fe9445a9afa941da12ba3f3ebf0a1daa10b44c182703e0c7e9a255150a9eec2b990600090a26040517fea0a523700000000000000000000000000000000000000000000000000000000815260206004820152601860248201527f4368756753706c61736842756e646c65417070726f766564000000000000000060448201527f00000000000000000000000000000000000000000000000000000000000000006001600160a01b03169063ea0a523790606401600060405180830381600087803b1580156200213e57600080fd5b505af115801562002153573d6000803e3d6000fd5b505050505050565b6200216562002755565b60665415620021dd5760405162461bcd60e51b815260206004820152603d60248201527f4368756753706c6173684d616e616765723a2063616e6e6f74206368616e676560448201527f2070726f7879207768696c652062756e646c65206973206163746976650000006064820152608401620006eb565b6001600160a01b0382166200225b5760405162461bcd60e51b815260206004820152602d60248201527f4368756753706c6173684d616e616765723a2070726f78792063616e6e6f742060448201527f62652061646472657373283029000000000000000000000000000000000000006064820152608401620006eb565b80620022d05760405162461bcd60e51b815260206004820152602f60248201527f4368756753706c6173684d616e616765723a2070726f7879206d75737420686160448201527f766520612070726f7879207479706500000000000000000000000000000000006064820152608401620006eb565b81606984604051620022e3919062003f5e565b908152602001604051809103902060006101000a8154816001600160a01b0302191690836001600160a01b0316021790555080606a8460405162002328919062003f5e565b90815260200160405180910390208190555080826001600160a01b03168460405162002355919062003f5e565b60405180910390207f1103a26b2f4e797ec4480ff0dd1c6f43d839d8b782a84f40ec08ba18ab772914866040516200238e9190620039e5565b60405180910390a4505050565b620023a562002755565b6066546200241c5760405162461bcd60e51b815260206004820152603060248201527f4368756753706c6173684d616e616765723a206e6f2062756e646c652069732060448201527f63757272656e746c7920616374697665000000000000000000000000000000006064820152608401620006eb565b6066805460008181526068602090815260408083209290945581547fffffffffffffffffffffffffffffffffffffffffffffffffffffffffffffff00166004178255600282015493519384529092339183917f470417b6113cc901e8cf435d837f5cb7076192b21da0454db5f5eff2685fbdb6910160405180910390a36040517fea0a523700000000000000000000000000000000000000000000000000000000815260206004820152601960248201527f4368756753706c61736842756e646c6543616e63656c6c65640000000000000060448201527f00000000000000000000000000000000000000000000000000000000000000006001600160a01b03169063ea0a523790606401600060405180830381600087803b1580156200254257600080fd5b505af115801562002557573d6000803e3d6000fd5b50505050620025668162002f5f565b6066546000908152606860209081526040808320600401548151848152928301918290526001600160a01b0316929183917f000000000000000000000000000000000000000000000000000000000000000091620025c49162003f5e565b60006040518083038185875af1925050503d806000811462002603576040519150601f19603f3d011682016040523d82523d6000602084013e62002608565b606091505b505090508062001e325760405162461bcd60e51b815260206004820152603e60248201527f4368756753706c6173684d616e616765723a206661696c656420746f2073656e60448201527f64206f776e6572277320626f6e6420746f20746865206578656375746f7200006064820152608401620006eb565b6200268b62002755565b6001600160a01b038116620027095760405162461bcd60e51b815260206004820152602660248201527f4f776e61626c653a206e6577206f776e657220697320746865207a65726f206160448201527f64647265737300000000000000000000000000000000000000000000000000006064820152608401620006eb565b6200271481620027b1565b50565b604051349033907f6c703791f399558807424f489ccd811c72b4ff0b74af547264fad7c646776df090600090a3565b6001600160a01b03163b151590565b6033546001600160a01b031633146200119e5760405162461bcd60e51b815260206004820181905260248201527f4f776e61626c653a2063616c6c6572206973206e6f7420746865206f776e65726044820152606401620006eb565b603380546001600160a01b038381167fffffffffffffffffffffffff0000000000000000000000000000000000000000831681179093556040519116919082907f8be0079c531659141344cd1fd0a4f28419497f9722a3daafe3b4186f6b6457e090600090a35050565b6000808211620028945760405162461bcd60e51b815260206004820152603260248201527f4d65726b6c65547265653a20746f74616c206c6561766573206d75737420626560448201527f2067726561746572207468616e207a65726f00000000000000000000000000006064820152608401620006eb565b818410620028e55760405162461bcd60e51b815260206004820152601f60248201527f4d65726b6c65547265653a20696e646578206f7574206f6620626f756e6473006044820152606401620006eb565b620028f08262003468565b8351146200298d5760405162461bcd60e51b815260206004820152604860248201527f4d65726b6c65547265653a20746f74616c207369626c696e677320646f65732060448201527f6e6f7420636f72726563746c7920636f72726573706f6e6420746f20746f746160648201527f6c206c6561766573000000000000000000000000000000000000000000000000608482015260a401620006eb565b8460005b845181101562002a6c5785600116600103620029fe57848181518110620029bc57620029bc62003fc0565b602002602001015182604051602001620029e0929190918252602082015260400190565b60405160208183030381529060405280519060200120915062002a50565b8185828151811062002a145762002a1462003fc0565b602002602001015160405160200162002a37929190918252602082015260400190565b6040516020818303038152906040528051906020012091505b60019590951c948062002a63816200408f565b91505062002991565b5090951495945050505050565b6040517f72c6838f000000000000000000000000000000000000000000000000000000008152600481018390526000907f00000000000000000000000000000000000000000000000000000000000000006001600160a01b0316906372c6838f90602401602060405180830381865afa15801562002afb573d6000803e3d6000fd5b505050506040513d601f19601f8201168201806040525081019062002b21919062003f7c565b90506001600160a01b03811662002ba15760405162461bcd60e51b815260206004820152602c60248201527f4368756753706c6173684d616e616765723a2070726f7879207479706520686160448201527f73206e6f206164617074657200000000000000000000000000000000000000006064820152608401620006eb565b600062002baf85836200355a565b9050803f835160208501200362002bc7575050505050565b60405160009062002bff907f600d380380600d6000396000f3000000000000000000000000000000000000009086906020016200423d565b604051602081830303815290604052905060008151602083016000f085516020870120909150813f1462002c9c5760405162461bcd60e51b815260206004820152602d60248201527f50726f7879557064617465723a20636f646520776173206e6f7420636f72726560448201527f63746c79206465706c6f796564000000000000000000000000000000000000006064820152608401620006eb565b62001968878585620036ce565b6040517f72c6838f000000000000000000000000000000000000000000000000000000008152600481018490526000907f00000000000000000000000000000000000000000000000000000000000000006001600160a01b0316906372c6838f90602401602060405180830381865afa15801562002d2b573d6000803e3d6000fd5b505050506040513d601f19601f8201168201806040525081019062002d51919062003f7c565b90506001600160a01b03811662002dd15760405162461bcd60e51b815260206004820152602c60248201527f4368756753706c6173684d616e616765723a2070726f7879207479706520686160448201527f73206e6f206164617074657200000000000000000000000000000000000000006064820152608401620006eb565b600062002ddf86836200355a565b905062002e0e86837f0000000000000000000000000000000000000000000000000000000000000000620036ce565b60405160248101859052604481018490526000906001600160a01b0388169060640160408051601f198184030181529181526020820180517bffffffffffffffffffffffffffffffffffffffffffffffffffffffff167f9b0b0fda000000000000000000000000000000000000000000000000000000001790525162002e95919062003f5e565b6000604051808303816000865af19150503d806000811462002ed4576040519150601f19603f3d011682016040523d82523d6000602084013e62002ed9565b606091505b505090508062002f525760405162461bcd60e51b815260206004820152603360248201527f4368756753706c6173684d616e616765723a2063616c6c20746f20736574207060448201527f726f78792073746f72616765206661696c6564000000000000000000000000006064820152608401620006eb565b62001968878484620036ce565b600081815260686020526040808220815160c081019092528054829060ff16600481111562002f925762002f9262003dba565b600481111562002fa65762002fa662003dba565b8152602001600182018054806020026020016040519081016040528092919081815260200182805480156200301b57602002820191906000526020600020906000905b825461010083900a900460ff16151581526020600192830181810494850194909303909202910180841162002fe95790505b50505091835250506002820154602082015260038083015460408301526004909201546001600160a01b038116606083015274010000000000000000000000000000000000000000900460ff1615156080909101529091508151600481111562003089576200308962003dba565b1480620030ab5750600481516004811115620030a957620030a962003dba565b145b6200311f5760405162461bcd60e51b815260206004820152603760248201527f4368756753706c6173684d616e616765723a2062756e646c65206973206e6f7460448201527f20636f6d706c65746564206f722063616e63656c6c65640000000000000000006064820152608401620006eb565b60808101516001600160a01b0316620031a15760405162461bcd60e51b815260206004820152602e60248201527f4368756753706c6173684d616e616765723a2062756e646c6520686173206e6f60448201527f74206265656e20636c61696d65640000000000000000000000000000000000006064820152608401620006eb565b8060a00151156200321b5760405162461bcd60e51b815260206004820152603460248201527f4368756753706c6173684d616e616765723a20626f6e6420616c72656164792060448201527f72657475726e656420746f206578656375746f720000000000000000000000006064820152608401620006eb565b600160a082015260808101516067546040805160008082526020820192839052936001600160a01b0316929162003253919062003f5e565b60006040518083038185875af1925050503d806000811462003292576040519150601f19603f3d011682016040523d82523d6000602084013e62003297565b606091505b5050905080620033105760405162461bcd60e51b815260206004820152602a60248201527f4368756753706c6173684d616e616765723a2063616c6c20746f20657865637560448201527f746f72206661696c6564000000000000000000000000000000000000000000006064820152608401620006eb565b81608001516001600160a01b0316837f0ef2ab9f03be2e7b0034d20c21f8c545bde4e24eef40140f7211f75e443e9b1a60405160405180910390a36040517fea0a523700000000000000000000000000000000000000000000000000000000815260206004820152601460248201527f4578656375746f72426f6e6452657475726e656400000000000000000000000060448201527f00000000000000000000000000000000000000000000000000000000000000006001600160a01b03169063ea0a52379060640162001c65565b600054610100900460ff166200345e5760405162461bcd60e51b815260206004820152602b60248201527f496e697469616c697a61626c653a20636f6e7472616374206973206e6f74206960448201527f6e697469616c697a696e670000000000000000000000000000000000000000006064820152608401620006eb565b6200119e62003813565b6000808211620034e15760405162461bcd60e51b815260206004820152603060248201527f4c69625f4d65726b6c65547265653a2043616e6e6f7420636f6d70757465206360448201527f65696c286c6f675f3229206f6620302e000000000000000000000000000000006064820152608401620006eb565b81600103620034f257506000919050565b81600060805b6001811062003537578062003511600180831b62004287565b901b8316156200352e57620035278183620040ca565b92811c9291505b60011c620034f8565b506001811b8414620035535762003550600182620040ca565b90505b9392505050565b6040516001600160a01b038381166024830152600091829182919085169060440160408051601f198184030181529181526020820180517bffffffffffffffffffffffffffffffffffffffffffffffffffffffff167f204e1c7a0000000000000000000000000000000000000000000000000000000017905251620035e0919062003f5e565b600060405180830381855af49150503d80600081146200361d576040519150601f19603f3d011682016040523d82523d6000602084013e62003622565b606091505b509150915081620036c25760405162461bcd60e51b815260206004820152604260248201527f4368756753706c6173684d616e616765723a2064656c656761746563616c6c2060448201527f746f206765742070726f787920696d706c656d656e746174696f6e206661696c60648201527f6564000000000000000000000000000000000000000000000000000000000000608482015260a401620006eb565b60200151949350505050565b6040516001600160a01b03848116602483015282811660448301526000919084169060640160408051601f198184030181529181526020820180517bffffffffffffffffffffffffffffffffffffffffffffffffffffffff167f3d607ca1000000000000000000000000000000000000000000000000000000001790525162003758919062003f5e565b600060405180830381855af49150503d806000811462003795576040519150601f19603f3d011682016040523d82523d6000602084013e6200379a565b606091505b505090508062001e325760405162461bcd60e51b815260206004820152603760248201527f4368756753706c6173684d616e616765723a2064656c656761746563616c6c2060448201527f746f20757067726164652070726f7879206661696c65640000000000000000006064820152608401620006eb565b600054610100900460ff16620038925760405162461bcd60e51b815260206004820152602b60248201527f496e697469616c697a61626c653a20636f6e7472616374206973206e6f74206960448201527f6e697469616c697a696e670000000000000000000000000000000000000000006064820152608401620006eb565b6200119e33620027b1565b61094180620042a283390190565b82805482825590600052602060002090601f01602090048101928215620039455791602002820160005b838211156200391457835183826101000a81548160ff0219169083151502179055509260200192600101602081600001049283019260010302620038d5565b8015620039435782816101000a81549060ff021916905560010160208160000104928301926001030262003914565b505b506200395392915062003957565b5090565b5b8082111562003953576000815560010162003958565b6000602082840312156200398157600080fd5b5035919050565b60005b83811015620039a55781810151838201526020016200398b565b8381111562001e325750506000910152565b60008151808452620039d181602086016020860162003988565b601f01601f19169290920160200192915050565b602081526000620035536020830184620039b7565b7f4e487b7100000000000000000000000000000000000000000000000000000000600052604160045260246000fd5b6040516060810167ffffffffffffffff8111828210171562003a4f5762003a4f620039fa565b60405290565b604051601f8201601f1916810167ffffffffffffffff8111828210171562003a815762003a81620039fa565b604052919050565b600067ffffffffffffffff83111562003aa65762003aa6620039fa565b62003abb6020601f19601f8601160162003a55565b905082815283838301111562003ad057600080fd5b828260208301376000602084830101529392505050565b600082601f83011262003af957600080fd5b620035538383356020850162003a89565b60006020828403121562003b1d57600080fd5b813567ffffffffffffffff81111562003b3557600080fd5b62003b438482850162003ae7565b949350505050565b60008060006060848603121562003b6157600080fd5b8335925060208401359150604084013567ffffffffffffffff81111562003b8757600080fd5b62003b958682870162003ae7565b9150509250925092565b6001600160a01b03811681146200271457600080fd5b6000806040838503121562003bc957600080fd5b823562003bd68162003b9f565b946020939093013593505050565b6000806040838503121562003bf857600080fd5b823567ffffffffffffffff81111562003c1057600080fd5b62003c1e8582860162003ae7565b925050602083013562003c318162003b9f565b809150509250929050565b600082601f83011262003c4e57600080fd5b8135602067ffffffffffffffff82111562003c6d5762003c6d620039fa565b8160051b62003c7e82820162003a55565b928352848101820192828101908785111562003c9957600080fd5b83870192505b8483101562003cba5782358252918301919083019062003c9f565b979650505050505050565b60008060006060848603121562003cdb57600080fd5b833567ffffffffffffffff8082111562003cf457600080fd5b908501906060828803121562003d0957600080fd5b62003d1362003a29565b82358281111562003d2357600080fd5b62003d318982860162003ae7565b82525060208301356002811062003d4757600080fd5b602082015260408301358281111562003d5f57600080fd5b80840193505087601f84011262003d7557600080fd5b62003d868884356020860162003a89565b60408201528095505060208601359350604086013591508082111562003dab57600080fd5b5062003b958682870162003c3c565b7f4e487b7100000000000000000000000000000000000000000000000000000000600052602160045260246000fd5b60a081016005871062003e005762003e0062003dba565b958152602081019490945260408401929092526001600160a01b03166060830152151560809091015290565b60008060006060848603121562003e4257600080fd5b833567ffffffffffffffff81111562003e5a57600080fd5b62003e688682870162003ae7565b935050602084013562003e7b8162003b9f565b929592945050506040919091013590565b60006020828403121562003e9f57600080fd5b8135620035538162003b9f565b600181811c9082168062003ec157607f821691505b60208210810362003efb577f4e487b7100000000000000000000000000000000000000000000000000000000600052602260045260246000fd5b50919050565b6000835162003f1581846020880162003988565b83519083019062003f2b81836020880162003988565b01949350505050565b83815282602082015260606040820152600062003f556060830184620039b7565b95945050505050565b6000825162003f7281846020870162003988565b9190910192915050565b60006020828403121562003f8f57600080fd5b8151620035538162003b9f565b6001600160a01b038316815260406020820152600062003b436040830184620039b7565b7f4e487b7100000000000000000000000000000000000000000000000000000000600052603260045260246000fd5b606081526000620040046060830186620039b7565b6002851062004017576200401762003dba565b8460208401528281036040840152620040318185620039b7565b9695505050505050565b600080604083850312156200404f57600080fd5b505080516020909101519092909150565b7f4e487b7100000000000000000000000000000000000000000000000000000000600052601160045260246000fd5b60007fffffffffffffffffffffffffffffffffffffffffffffffffffffffffffffffff8203620040c357620040c362004060565b5060010190565b60008219821115620040e057620040e062004060565b500190565b601f8211156200412f57600081815260208120601f850160051c810160208610156200410e5750805b601f850160051c820191505b8181101562002153578281556001016200411a565b505050565b815167ffffffffffffffff811115620041515762004151620039fa565b620041698162004162845462003eac565b84620040e5565b602080601f831160018114620041bf5760008415620041885750858301515b7fffffffffffffffffffffffffffffffffffffffffffffffffffffffffffffffff600386901b1c1916600185901b17855562002153565b600085815260208120601f198616915b82811015620041f057888601518255948401946001909101908401620041cf565b50858210156200422d57878501517fffffffffffffffffffffffffffffffffffffffffffffffffffffffffffffffff600388901b60f8161c191681555b5050505050600190811b01905550565b7fffffffffffffffffffffffffff0000000000000000000000000000000000000083168152600082516200427981600d85016020870162003988565b91909101600d019392505050565b6000828210156200429c576200429c62004060565b50039056fe608060405234801561001057600080fd5b5060405161094138038061094183398101604081905261002f916100b2565b6100388161003e565b506100e2565b60006100566000805160206109218339815191525490565b600080516020610921833981519152839055604080516001600160a01b038084168252851660208201529192507f7e644d79422f17c01e4894b5f4f588d331ebfa28653d42ae832dc59e38c9798f910160405180910390a15050565b6000602082840312156100c457600080fd5b81516001600160a01b03811681146100db57600080fd5b9392505050565b610830806100f16000396000f3fe60806040526004361061005e5760003560e01c80635c60da1b116100435780635c60da1b146100be5780638f283970146100f8578063f851a440146101185761006d565b80633659cfe6146100755780634f1ef286146100955761006d565b3661006d5761006b61012d565b005b61006b61012d565b34801561008157600080fd5b5061006b6100903660046106d9565b610224565b6100a86100a33660046106f4565b610296565b6040516100b59190610777565b60405180910390f35b3480156100ca57600080fd5b506100d3610419565b60405173ffffffffffffffffffffffffffffffffffffffff90911681526020016100b5565b34801561010457600080fd5b5061006b6101133660046106d9565b6104b0565b34801561012457600080fd5b506100d3610517565b60006101577f360894a13ba1a3210667c828492db98dca3e2076cc3735a920a3ca505d382bbc5490565b905073ffffffffffffffffffffffffffffffffffffffff8116610201576040517f08c379a000000000000000000000000000000000000000000000000000000000815260206004820152602560248201527f50726f78793a20696d706c656d656e746174696f6e206e6f7420696e6974696160448201527f6c697a656400000000000000000000000000000000000000000000000000000060648201526084015b60405180910390fd5b3660008037600080366000845af43d6000803e8061021e573d6000fd5b503d6000f35b7fb53127684a568b3173ae13b9f8a6016e243e63b6e8ee1178d6a717850b5d61035473ffffffffffffffffffffffffffffffffffffffff163373ffffffffffffffffffffffffffffffffffffffff16148061027d575033155b1561028e5761028b816105a3565b50565b61028b61012d565b60606102c07fb53127684a568b3173ae13b9f8a6016e243e63b6e8ee1178d6a717850b5d61035490565b73ffffffffffffffffffffffffffffffffffffffff163373ffffffffffffffffffffffffffffffffffffffff1614806102f7575033155b1561040a57610305846105a3565b6000808573ffffffffffffffffffffffffffffffffffffffff16858560405161032f9291906107ea565b600060405180830381855af49150503d806000811461036a576040519150601f19603f3d011682016040523d82523d6000602084013e61036f565b606091505b509150915081610401576040517f08c379a000000000000000000000000000000000000000000000000000000000815260206004820152603960248201527f50726f78793a2064656c656761746563616c6c20746f206e657720696d706c6560448201527f6d656e746174696f6e20636f6e7472616374206661696c65640000000000000060648201526084016101f8565b91506104129050565b61041261012d565b9392505050565b60006104437fb53127684a568b3173ae13b9f8a6016e243e63b6e8ee1178d6a717850b5d61035490565b73ffffffffffffffffffffffffffffffffffffffff163373ffffffffffffffffffffffffffffffffffffffff16148061047a575033155b156104a557507f360894a13ba1a3210667c828492db98dca3e2076cc3735a920a3ca505d382bbc5490565b6104ad61012d565b90565b7fb53127684a568b3173ae13b9f8a6016e243e63b6e8ee1178d6a717850b5d61035473ffffffffffffffffffffffffffffffffffffffff163373ffffffffffffffffffffffffffffffffffffffff161480610509575033155b1561028e5761028b8161060b565b60006105417fb53127684a568b3173ae13b9f8a6016e243e63b6e8ee1178d6a717850b5d61035490565b73ffffffffffffffffffffffffffffffffffffffff163373ffffffffffffffffffffffffffffffffffffffff161480610578575033155b156104a557507fb53127684a568b3173ae13b9f8a6016e243e63b6e8ee1178d6a717850b5d61035490565b7f360894a13ba1a3210667c828492db98dca3e2076cc3735a920a3ca505d382bbc81905560405173ffffffffffffffffffffffffffffffffffffffff8216907fbc7cd75a20ee27fd9adebab32041f755214dbc6bffa90cc0225b39da2e5c2d3b90600090a250565b60006106357fb53127684a568b3173ae13b9f8a6016e243e63b6e8ee1178d6a717850b5d61035490565b7fb53127684a568b3173ae13b9f8a6016e243e63b6e8ee1178d6a717850b5d61038390556040805173ffffffffffffffffffffffffffffffffffffffff8084168252851660208201529192507f7e644d79422f17c01e4894b5f4f588d331ebfa28653d42ae832dc59e38c9798f910160405180910390a15050565b803573ffffffffffffffffffffffffffffffffffffffff811681146106d457600080fd5b919050565b6000602082840312156106eb57600080fd5b610412826106b0565b60008060006040848603121561070957600080fd5b610712846106b0565b9250602084013567ffffffffffffffff8082111561072f57600080fd5b818601915086601f83011261074357600080fd5b81358181111561075257600080fd5b87602082850101111561076457600080fd5b6020830194508093505050509250925092565b600060208083528351808285015260005b818110156107a457858101830151858201604001528201610788565b818111156107b6576000604083870101525b50601f017fffffffffffffffffffffffffffffffffffffffffffffffffffffffffffffffe016929092016040019392505050565b818382376000910190815291905056fea2646970667358221220120210f19dd8be0e46312b3b9a2148bbb98ec24cce2aa05af1c3d1fe69f55b2b64736f6c634300080f0033b53127684a568b3173ae13b9f8a6016e243e63b6e8ee1178d6a717850b5d6103a264697066735822122083f35d0d9e8ea7318e083a0c8e34663122611ebdb7a882cc19be565a44e5c4bf64736f6c634300080f0033496e697469616c697a61626c653a20636f6e7472616374206973206e6f74206960a0604052604051620012333803806200123383398101604081905262000026916200049e565b8282828281620000398282600062000062565b50620000479050826200009f565b5050506001600160a01b0390931660805250620005ea915050565b6200006d83620000fa565b6000825111806200007b5750805b156200009a576200009883836200013c60201b620003b91760201c565b505b505050565b7f7e644d79422f17c01e4894b5f4f588d331ebfa28653d42ae832dc59e38c9798f620000ca6200016b565b604080516001600160a01b03928316815291841660208301520160405180910390a1620000f781620001a4565b50565b620001058162000259565b6040516001600160a01b038216907fbc7cd75a20ee27fd9adebab32041f755214dbc6bffa90cc0225b39da2e5c2d3b90600090a250565b60606200016483836040518060600160405280602781526020016200120c602791396200030d565b9392505050565b600062000195600080516020620011ec83398151915260001b620003f360201b620002d71760201c565b546001600160a01b0316919050565b6001600160a01b0381166200020f5760405162461bcd60e51b815260206004820152602660248201527f455243313936373a206e65772061646d696e20697320746865207a65726f206160448201526564647265737360d01b60648201526084015b60405180910390fd5b8062000238600080516020620011ec83398151915260001b620003f360201b620002d71760201c565b80546001600160a01b0319166001600160a01b039290921691909117905550565b6200026f81620003f660201b620003e51760201c565b620002d35760405162461bcd60e51b815260206004820152602d60248201527f455243313936373a206e657720696d706c656d656e746174696f6e206973206e60448201526c1bdd08184818dbdb9d1c9858dd609a1b606482015260840162000206565b80620002387f360894a13ba1a3210667c828492db98dca3e2076cc3735a920a3ca505d382bbc60001b620003f360201b620002d71760201c565b60606001600160a01b0384163b620003775760405162461bcd60e51b815260206004820152602660248201527f416464726573733a2064656c65676174652063616c6c20746f206e6f6e2d636f6044820152651b9d1c9858dd60d21b606482015260840162000206565b600080856001600160a01b03168560405162000394919062000597565b600060405180830381855af49150503d8060008114620003d1576040519150601f19603f3d011682016040523d82523d6000602084013e620003d6565b606091505b509092509050620003e982828662000405565b9695505050505050565b90565b6001600160a01b03163b151590565b606083156200041657508162000164565b825115620004275782518084602001fd5b8160405162461bcd60e51b8152600401620002069190620005b5565b6001600160a01b0381168114620000f757600080fd5b634e487b7160e01b600052604160045260246000fd5b60005b838110156200048c57818101518382015260200162000472565b83811115620000985750506000910152565b60008060008060808587031215620004b557600080fd5b8451620004c28162000443565b6020860151909450620004d58162000443565b6040860151909350620004e88162000443565b60608601519092506001600160401b03808211156200050657600080fd5b818701915087601f8301126200051b57600080fd5b81518181111562000530576200053062000459565b604051601f8201601f19908116603f011681019083821181831017156200055b576200055b62000459565b816040528281528a60208487010111156200057557600080fd5b620005888360208301602088016200046f565b979a9699509497505050505050565b60008251620005ab8184602087016200046f565b9190910192915050565b6020815260008251806020840152620005d68160408501602087016200046f565b601f01601f19169190910160400192915050565b608051610bdf6200060d6000396000818161010301526104f60152610bdf6000f3fe6080604052600436106100695760003560e01c80637b103999116100435780637b103999146100f15780638f28397014610125578063f851a4401461014557610078565b80633659cfe6146100805780634f1ef286146100a05780635c60da1b146100b357610078565b366100785761007661015a565b005b61007661015a565b34801561008c57600080fd5b5061007661009b366004610a2a565b610174565b6100766100ae366004610a47565b6101d8565b3480156100bf57600080fd5b506100c8610266565b60405173ffffffffffffffffffffffffffffffffffffffff909116815260200160405180910390f35b3480156100fd57600080fd5b506100c87f000000000000000000000000000000000000000000000000000000000000000081565b34801561013157600080fd5b50610076610140366004610a2a565b6102da565b34801561015157600080fd5b506100c8610321565b610162610401565b61017261016d6104f2565b610583565b565b7fb53127684a568b3173ae13b9f8a6016e243e63b6e8ee1178d6a717850b5d61035473ffffffffffffffffffffffffffffffffffffffff1633036101d0576101cd816040518060200160405280600081525060006105a7565b50565b6101cd61015a565b7fb53127684a568b3173ae13b9f8a6016e243e63b6e8ee1178d6a717850b5d61035473ffffffffffffffffffffffffffffffffffffffff16330361025e576102598383838080601f016020809104026020016040519081016040528093929190818152602001838380828437600092019190915250600192506105a7915050565b505050565b61025961015a565b60006102a67fb53127684a568b3173ae13b9f8a6016e243e63b6e8ee1178d6a717850b5d61035473ffffffffffffffffffffffffffffffffffffffff1690565b73ffffffffffffffffffffffffffffffffffffffff1633036102cf576102ca6104f2565b905090565b6102d761015a565b90565b7fb53127684a568b3173ae13b9f8a6016e243e63b6e8ee1178d6a717850b5d61035473ffffffffffffffffffffffffffffffffffffffff1633036101d0576101cd816105d2565b60006103617fb53127684a568b3173ae13b9f8a6016e243e63b6e8ee1178d6a717850b5d61035473ffffffffffffffffffffffffffffffffffffffff1690565b73ffffffffffffffffffffffffffffffffffffffff1633036102cf57507fb53127684a568b3173ae13b9f8a6016e243e63b6e8ee1178d6a717850b5d61035473ffffffffffffffffffffffffffffffffffffffff1690565b60606103de8383604051806060016040528060278152602001610b8360279139610669565b9392505050565b73ffffffffffffffffffffffffffffffffffffffff163b151590565b7fb53127684a568b3173ae13b9f8a6016e243e63b6e8ee1178d6a717850b5d61035473ffffffffffffffffffffffffffffffffffffffff163303610172576040517f08c379a000000000000000000000000000000000000000000000000000000000815260206004820152604260248201527f5472616e73706172656e745570677261646561626c6550726f78793a2061646d60448201527f696e2063616e6e6f742066616c6c6261636b20746f2070726f7879207461726760648201527f6574000000000000000000000000000000000000000000000000000000000000608482015260a4015b60405180910390fd5b60007f000000000000000000000000000000000000000000000000000000000000000073ffffffffffffffffffffffffffffffffffffffff16639f4a53376040518163ffffffff1660e01b8152600401602060405180830381865afa15801561055f573d6000803e3d6000fd5b505050506040513d601f19601f820116820180604052508101906102ca9190610acc565b3660008037600080366000845af43d6000803e8080156105a2573d6000f35b3d6000fd5b6105b083610791565b6000825111806105bd5750805b15610259576105cc83836103b9565b50505050565b7f7e644d79422f17c01e4894b5f4f588d331ebfa28653d42ae832dc59e38c9798f6106317fb53127684a568b3173ae13b9f8a6016e243e63b6e8ee1178d6a717850b5d61035473ffffffffffffffffffffffffffffffffffffffff1690565b6040805173ffffffffffffffffffffffffffffffffffffffff928316815291841660208301520160405180910390a16101cd816107de565b606073ffffffffffffffffffffffffffffffffffffffff84163b61070f576040517f08c379a000000000000000000000000000000000000000000000000000000000815260206004820152602660248201527f416464726573733a2064656c65676174652063616c6c20746f206e6f6e2d636f60448201527f6e7472616374000000000000000000000000000000000000000000000000000060648201526084016104e9565b6000808573ffffffffffffffffffffffffffffffffffffffff16856040516107379190610b15565b600060405180830381855af49150503d8060008114610772576040519150601f19603f3d011682016040523d82523d6000602084013e610777565b606091505b50915091506107878282866108ea565b9695505050505050565b61079a8161093d565b60405173ffffffffffffffffffffffffffffffffffffffff8216907fbc7cd75a20ee27fd9adebab32041f755214dbc6bffa90cc0225b39da2e5c2d3b90600090a250565b73ffffffffffffffffffffffffffffffffffffffff8116610881576040517f08c379a000000000000000000000000000000000000000000000000000000000815260206004820152602660248201527f455243313936373a206e65772061646d696e20697320746865207a65726f206160448201527f646472657373000000000000000000000000000000000000000000000000000060648201526084016104e9565b807fb53127684a568b3173ae13b9f8a6016e243e63b6e8ee1178d6a717850b5d61035b80547fffffffffffffffffffffffff00000000000000000000000000000000000000001673ffffffffffffffffffffffffffffffffffffffff9290921691909117905550565b606083156108f95750816103de565b8251156109095782518084602001fd5b816040517f08c379a00000000000000000000000000000000000000000000000000000000081526004016104e99190610b31565b73ffffffffffffffffffffffffffffffffffffffff81163b6109e1576040517f08c379a000000000000000000000000000000000000000000000000000000000815260206004820152602d60248201527f455243313936373a206e657720696d706c656d656e746174696f6e206973206e60448201527f6f74206120636f6e74726163740000000000000000000000000000000000000060648201526084016104e9565b807f360894a13ba1a3210667c828492db98dca3e2076cc3735a920a3ca505d382bbc6108a4565b73ffffffffffffffffffffffffffffffffffffffff811681146101cd57600080fd5b600060208284031215610a3c57600080fd5b81356103de81610a08565b600080600060408486031215610a5c57600080fd5b8335610a6781610a08565b9250602084013567ffffffffffffffff80821115610a8457600080fd5b818601915086601f830112610a9857600080fd5b813581811115610aa757600080fd5b876020828501011115610ab957600080fd5b6020830194508093505050509250925092565b600060208284031215610ade57600080fd5b81516103de81610a08565b60005b83811015610b04578181015183820152602001610aec565b838111156105cc5750506000910152565b60008251610b27818460208701610ae9565b9190910192915050565b6020815260008251806020840152610b50816040850160208701610ae9565b601f017fffffffffffffffffffffffffffffffffffffffffffffffffffffffffffffffe016919091016040019291505056fe416464726573733a206c6f772d6c6576656c2064656c65676174652063616c6c206661696c6564a26469706673582212202af39c8b85d7d45d627fcf9d9162cd0aff276d5ff9df693690fe8c6b3d149b0d64736f6c634300080f0033b53127684a568b3173ae13b9f8a6016e243e63b6e8ee1178d6a717850b5d6103416464726573733a206c6f772d6c6576656c2064656c65676174652063616c6c206661696c656460e060405234801561001057600080fd5b50604051611e68380380611e6883398101604081905261002f91610068565b6001600160a01b0392831660805260a0919091521660c0526100a4565b80516001600160a01b038116811461006357600080fd5b919050565b60008060006060848603121561007d57600080fd5b6100868461004c565b92506020840151915061009b6040850161004c565b90509250925092565b60805160a05160c051611d8f6100d9600039600081816101da015261048c0152600060d40152600061016e0152611d8f6000f3fe60806040523480156200001157600080fd5b5060043610620000b05760003560e01c806391c9b268116200007f578063d393c8711162000062578063d393c87114620001fc578063ea0a52371462000213578063fdff9b4d146200022a57600080fd5b806391c9b26814620001905780639f4a533714620001d457600080fd5b80632713c57414620000b55780632e0a696014620000ce57806372c6838f14620001095780637bafa3c71462000168575b600080fd5b620000cc620000c6366004620007c2565b62000261565b005b620000f67f000000000000000000000000000000000000000000000000000000000000000081565b6040519081526020015b60405180910390f35b620001426200011a366004620007f5565b60036020526000908152604090205473ffffffffffffffffffffffffffffffffffffffff1681565b60405173ffffffffffffffffffffffffffffffffffffffff909116815260200162000100565b620001427f000000000000000000000000000000000000000000000000000000000000000081565b62000142620001a1366004620008f1565b805160208183018101805160018252928201919093012091525473ffffffffffffffffffffffffffffffffffffffff1681565b620001427f000000000000000000000000000000000000000000000000000000000000000081565b620000cc6200020d36600462000932565b620003a4565b620000cc62000224366004620008f1565b6200066c565b620002506200023b36600462000992565b60026020526000908152604090205460ff1681565b604051901515815260200162000100565b60008281526003602052604090205473ffffffffffffffffffffffffffffffffffffffff161562000319576040517f08c379a000000000000000000000000000000000000000000000000000000000815260206004820152603660248201527f4368756753706c61736852656769737472793a2070726f78792074797065206860448201527f617320616e206578697374696e6720616461707465720000000000000000000060648201526084015b60405180910390fd5b60008281526003602090815260409182902080547fffffffffffffffffffffffff00000000000000000000000000000000000000001673ffffffffffffffffffffffffffffffffffffffff85169081179091558251858152918201527f02c2b20483f55f906aec6f0ce1d83e28caa15ff41a2c151ddc8d0fba3d0632a6910160405180910390a15050565b600073ffffffffffffffffffffffffffffffffffffffff16600184604051620003ce9190620009ec565b9081526040519081900360200190205473ffffffffffffffffffffffffffffffffffffffff161462000483576040517f08c379a000000000000000000000000000000000000000000000000000000000815260206004820152602b60248201527f4368756753706c61736852656769737472793a206e616d6520616c726561647960448201527f2072656769737465726564000000000000000000000000000000000000000000606482015260840162000310565b60008060001b307f000000000000000000000000000000000000000000000000000000000000000085878787604051602401620004c39392919062000a56565b604080517fffffffffffffffffffffffffffffffffffffffffffffffffffffffffffffffe08184030181529181526020820180517bffffffffffffffffffffffffffffffffffffffffffffffffffffffff167fe0921f85000000000000000000000000000000000000000000000000000000001790525162000545906200078e565b62000554949392919062000a93565b8190604051809103906000f590508015801562000575573d6000803e3d6000fd5b509050806001856040516200058b9190620009ec565b908152604080516020928190038301812080547fffffffffffffffffffffffff00000000000000000000000000000000000000001673ffffffffffffffffffffffffffffffffffffffff95861617905592841660008181526002909352912080547fffffffffffffffffffffffffffffffffffffffffffffffffffffffffffffff0016600117905590339062000623908790620009ec565b60405180910390207f72962faaa25d665d5e25bc92f06af041a82185e8b308bd017111c1ab0d2cef5b86886040516200065e92919062000ae0565b60405180910390a450505050565b3360009081526002602052604090205460ff16151560011462000738576040517f08c379a000000000000000000000000000000000000000000000000000000000815260206004820152604f60248201527f4368756753706c61736852656769737472793a206576656e74732063616e206f60448201527f6e6c7920626520616e6e6f756e636564206279204368756753706c6173684d6160648201527f6e6167657220636f6e7472616374730000000000000000000000000000000000608482015260a40162000310565b60405133906200074a908390620009ec565b60405180910390207f795f66a5da2addfeb09f1b32396ff2be31a38ebe0f85fae32133a226dbe065b38360405162000783919062000b11565b60405180910390a350565b6112338062000b2783390190565b73ffffffffffffffffffffffffffffffffffffffff81168114620007bf57600080fd5b50565b60008060408385031215620007d657600080fd5b823591506020830135620007ea816200079c565b809150509250929050565b6000602082840312156200080857600080fd5b5035919050565b7f4e487b7100000000000000000000000000000000000000000000000000000000600052604160045260246000fd5b600082601f8301126200085057600080fd5b813567ffffffffffffffff808211156200086e576200086e6200080f565b604051601f83017fffffffffffffffffffffffffffffffffffffffffffffffffffffffffffffffe0908116603f01168101908282118183101715620008b757620008b76200080f565b81604052838152866020858801011115620008d157600080fd5b836020870160208301376000602085830101528094505050505092915050565b6000602082840312156200090457600080fd5b813567ffffffffffffffff8111156200091c57600080fd5b6200092a848285016200083e565b949350505050565b6000806000606084860312156200094857600080fd5b833567ffffffffffffffff8111156200096057600080fd5b6200096e868287016200083e565b935050602084013562000981816200079c565b929592945050506040919091013590565b600060208284031215620009a557600080fd5b8135620009b2816200079c565b9392505050565b60005b83811015620009d6578181015183820152602001620009bc565b83811115620009e6576000848401525b50505050565b6000825162000a00818460208701620009b9565b9190910192915050565b6000815180845262000a24816020860160208601620009b9565b601f017fffffffffffffffffffffffffffffffffffffffffffffffffffffffffffffffe0169290920160200192915050565b60608152600062000a6b606083018662000a0a565b73ffffffffffffffffffffffffffffffffffffffff9490941660208301525060400152919050565b600073ffffffffffffffffffffffffffffffffffffffff808716835280861660208401528085166040840152506080606083015262000ad6608083018462000a0a565b9695505050505050565b73ffffffffffffffffffffffffffffffffffffffff831681526040602082015260006200092a604083018462000a0a565b602081526000620009b2602083018462000a0a56fe60a0604052604051620012333803806200123383398101604081905262000026916200049e565b8282828281620000398282600062000062565b50620000479050826200009f565b5050506001600160a01b0390931660805250620005ea915050565b6200006d83620000fa565b6000825111806200007b5750805b156200009a576200009883836200013c60201b620003b91760201c565b505b505050565b7f7e644d79422f17c01e4894b5f4f588d331ebfa28653d42ae832dc59e38c9798f620000ca6200016b565b604080516001600160a01b03928316815291841660208301520160405180910390a1620000f781620001a4565b50565b620001058162000259565b6040516001600160a01b038216907fbc7cd75a20ee27fd9adebab32041f755214dbc6bffa90cc0225b39da2e5c2d3b90600090a250565b60606200016483836040518060600160405280602781526020016200120c602791396200030d565b9392505050565b600062000195600080516020620011ec83398151915260001b620003f360201b620002d71760201c565b546001600160a01b0316919050565b6001600160a01b0381166200020f5760405162461bcd60e51b815260206004820152602660248201527f455243313936373a206e65772061646d696e20697320746865207a65726f206160448201526564647265737360d01b60648201526084015b60405180910390fd5b8062000238600080516020620011ec83398151915260001b620003f360201b620002d71760201c565b80546001600160a01b0319166001600160a01b039290921691909117905550565b6200026f81620003f660201b620003e51760201c565b620002d35760405162461bcd60e51b815260206004820152602d60248201527f455243313936373a206e657720696d706c656d656e746174696f6e206973206e60448201526c1bdd08184818dbdb9d1c9858dd609a1b606482015260840162000206565b80620002387f360894a13ba1a3210667c828492db98dca3e2076cc3735a920a3ca505d382bbc60001b620003f360201b620002d71760201c565b60606001600160a01b0384163b620003775760405162461bcd60e51b815260206004820152602660248201527f416464726573733a2064656c65676174652063616c6c20746f206e6f6e2d636f6044820152651b9d1c9858dd60d21b606482015260840162000206565b600080856001600160a01b03168560405162000394919062000597565b600060405180830381855af49150503d8060008114620003d1576040519150601f19603f3d011682016040523d82523d6000602084013e620003d6565b606091505b509092509050620003e982828662000405565b9695505050505050565b90565b6001600160a01b03163b151590565b606083156200041657508162000164565b825115620004275782518084602001fd5b8160405162461bcd60e51b8152600401620002069190620005b5565b6001600160a01b0381168114620000f757600080fd5b634e487b7160e01b600052604160045260246000fd5b60005b838110156200048c57818101518382015260200162000472565b83811115620000985750506000910152565b60008060008060808587031215620004b557600080fd5b8451620004c28162000443565b6020860151909450620004d58162000443565b6040860151909350620004e88162000443565b60608601519092506001600160401b03808211156200050657600080fd5b818701915087601f8301126200051b57600080fd5b81518181111562000530576200053062000459565b604051601f8201601f19908116603f011681019083821181831017156200055b576200055b62000459565b816040528281528a60208487010111156200057557600080fd5b620005888360208301602088016200046f565b979a9699509497505050505050565b60008251620005ab8184602087016200046f565b9190910192915050565b6020815260008251806020840152620005d68160408501602087016200046f565b601f01601f19169190910160400192915050565b608051610bdf6200060d6000396000818161010301526104f60152610bdf6000f3fe6080604052600436106100695760003560e01c80637b103999116100435780637b103999146100f15780638f28397014610125578063f851a4401461014557610078565b80633659cfe6146100805780634f1ef286146100a05780635c60da1b146100b357610078565b366100785761007661015a565b005b61007661015a565b34801561008c57600080fd5b5061007661009b366004610a2a565b610174565b6100766100ae366004610a47565b6101d8565b3480156100bf57600080fd5b506100c8610266565b60405173ffffffffffffffffffffffffffffffffffffffff909116815260200160405180910390f35b3480156100fd57600080fd5b506100c87f000000000000000000000000000000000000000000000000000000000000000081565b34801561013157600080fd5b50610076610140366004610a2a565b6102da565b34801561015157600080fd5b506100c8610321565b610162610401565b61017261016d6104f2565b610583565b565b7fb53127684a568b3173ae13b9f8a6016e243e63b6e8ee1178d6a717850b5d61035473ffffffffffffffffffffffffffffffffffffffff1633036101d0576101cd816040518060200160405280600081525060006105a7565b50565b6101cd61015a565b7fb53127684a568b3173ae13b9f8a6016e243e63b6e8ee1178d6a717850b5d61035473ffffffffffffffffffffffffffffffffffffffff16330361025e576102598383838080601f016020809104026020016040519081016040528093929190818152602001838380828437600092019190915250600192506105a7915050565b505050565b61025961015a565b60006102a67fb53127684a568b3173ae13b9f8a6016e243e63b6e8ee1178d6a717850b5d61035473ffffffffffffffffffffffffffffffffffffffff1690565b73ffffffffffffffffffffffffffffffffffffffff1633036102cf576102ca6104f2565b905090565b6102d761015a565b90565b7fb53127684a568b3173ae13b9f8a6016e243e63b6e8ee1178d6a717850b5d61035473ffffffffffffffffffffffffffffffffffffffff1633036101d0576101cd816105d2565b60006103617fb53127684a568b3173ae13b9f8a6016e243e63b6e8ee1178d6a717850b5d61035473ffffffffffffffffffffffffffffffffffffffff1690565b73ffffffffffffffffffffffffffffffffffffffff1633036102cf57507fb53127684a568b3173ae13b9f8a6016e243e63b6e8ee1178d6a717850b5d61035473ffffffffffffffffffffffffffffffffffffffff1690565b60606103de8383604051806060016040528060278152602001610b8360279139610669565b9392505050565b73ffffffffffffffffffffffffffffffffffffffff163b151590565b7fb53127684a568b3173ae13b9f8a6016e243e63b6e8ee1178d6a717850b5d61035473ffffffffffffffffffffffffffffffffffffffff163303610172576040517f08c379a000000000000000000000000000000000000000000000000000000000815260206004820152604260248201527f5472616e73706172656e745570677261646561626c6550726f78793a2061646d60448201527f696e2063616e6e6f742066616c6c6261636b20746f2070726f7879207461726760648201527f6574000000000000000000000000000000000000000000000000000000000000608482015260a4015b60405180910390fd5b60007f000000000000000000000000000000000000000000000000000000000000000073ffffffffffffffffffffffffffffffffffffffff16639f4a53376040518163ffffffff1660e01b8152600401602060405180830381865afa15801561055f573d6000803e3d6000fd5b505050506040513d601f19601f820116820180604052508101906102ca9190610acc565b3660008037600080366000845af43d6000803e8080156105a2573d6000f35b3d6000fd5b6105b083610791565b6000825111806105bd5750805b15610259576105cc83836103b9565b50505050565b7f7e644d79422f17c01e4894b5f4f588d331ebfa28653d42ae832dc59e38c9798f6106317fb53127684a568b3173ae13b9f8a6016e243e63b6e8ee1178d6a717850b5d61035473ffffffffffffffffffffffffffffffffffffffff1690565b6040805173ffffffffffffffffffffffffffffffffffffffff928316815291841660208301520160405180910390a16101cd816107de565b606073ffffffffffffffffffffffffffffffffffffffff84163b61070f576040517f08c379a000000000000000000000000000000000000000000000000000000000815260206004820152602660248201527f416464726573733a2064656c65676174652063616c6c20746f206e6f6e2d636f60448201527f6e7472616374000000000000000000000000000000000000000000000000000060648201526084016104e9565b6000808573ffffffffffffffffffffffffffffffffffffffff16856040516107379190610b15565b600060405180830381855af49150503d8060008114610772576040519150601f19603f3d011682016040523d82523d6000602084013e610777565b606091505b50915091506107878282866108ea565b9695505050505050565b61079a8161093d565b60405173ffffffffffffffffffffffffffffffffffffffff8216907fbc7cd75a20ee27fd9adebab32041f755214dbc6bffa90cc0225b39da2e5c2d3b90600090a250565b73ffffffffffffffffffffffffffffffffffffffff8116610881576040517f08c379a000000000000000000000000000000000000000000000000000000000815260206004820152602660248201527f455243313936373a206e65772061646d696e20697320746865207a65726f206160448201527f646472657373000000000000000000000000000000000000000000000000000060648201526084016104e9565b807fb53127684a568b3173ae13b9f8a6016e243e63b6e8ee1178d6a717850b5d61035b80547fffffffffffffffffffffffff00000000000000000000000000000000000000001673ffffffffffffffffffffffffffffffffffffffff9290921691909117905550565b606083156108f95750816103de565b8251156109095782518084602001fd5b816040517f08c379a00000000000000000000000000000000000000000000000000000000081526004016104e99190610b31565b73ffffffffffffffffffffffffffffffffffffffff81163b6109e1576040517f08c379a000000000000000000000000000000000000000000000000000000000815260206004820152602d60248201527f455243313936373a206e657720696d706c656d656e746174696f6e206973206e60448201527f6f74206120636f6e74726163740000000000000000000000000000000000000060648201526084016104e9565b807f360894a13ba1a3210667c828492db98dca3e2076cc3735a920a3ca505d382bbc6108a4565b73ffffffffffffffffffffffffffffffffffffffff811681146101cd57600080fd5b600060208284031215610a3c57600080fd5b81356103de81610a08565b600080600060408486031215610a5c57600080fd5b8335610a6781610a08565b9250602084013567ffffffffffffffff80821115610a8457600080fd5b818601915086601f830112610a9857600080fd5b813581811115610aa757600080fd5b876020828501011115610ab957600080fd5b6020830194508093505050509250925092565b600060208284031215610ade57600080fd5b81516103de81610a08565b60005b83811015610b04578181015183820152602001610aec565b838111156105cc5750506000910152565b60008251610b27818460208701610ae9565b9190910192915050565b6020815260008251806020840152610b50816040850160208701610ae9565b601f017fffffffffffffffffffffffffffffffffffffffffffffffffffffffffffffffe016919091016040019291505056fe416464726573733a206c6f772d6c6576656c2064656c65676174652063616c6c206661696c6564a26469706673582212202af39c8b85d7d45d627fcf9d9162cd0aff276d5ff9df693690fe8c6b3d149b0d64736f6c634300080f0033b53127684a568b3173ae13b9f8a6016e243e63b6e8ee1178d6a717850b5d6103416464726573733a206c6f772d6c6576656c2064656c65676174652063616c6c206661696c6564a26469706673582212205e9388dcb9d7bf6e16e898de3493d39e60f57c866b48c2c7974278a991e1095964736f6c634300080f0033",
  "devdoc": {
    "kind": "dev",
    "methods": {
      "constructor": {
        "params": {
          "_executionLockTime": "Amount of time for an executor to completely execute a bundle                            after claiming it.",
          "_executorBondAmount": "Executor bond amount in ETH.",
          "_owner": "Address of the owner of the ChugSplash contracts.",
          "_ownerBondAmount": "Amount that must be deposited in this contract in order to execute                            a bundle."
        }
      }
    },
    "title": "ChugSplashBootLoader",
    "version": 1
  },
  "userdoc": {
    "kind": "user",
    "methods": {
      "constructor": {
        "notice": "Boots an upgradeable version of ChugSplash with a root ChugSplashManager that owns         the ChugSplashRegistry. Once these contracts are deployed, we can upgrade ChugSplash         using ChugSplash!"
      },
      "managerImplementation()": {
        "notice": "Address of the ChugSplashManager implementation contract. All ChugSplashManagerProxy         contracts, including the root contract, will have this address as their         implementation."
      },
      "proxyUpdater()": {
        "notice": "Address of the ProxyUpdater."
      },
      "registryImplementation()": {
        "notice": "Address of the ChugSplashRegistry implementation contract."
      },
      "registryProxy()": {
        "notice": "Address of the ChugSplashRegistry's proxy."
      },
      "rootManagerProxy()": {
        "notice": "Address of the root ChugSplashManagerProxy."
      }
    },
    "version": 1
  },
  "storageLayout": {
    "storage": [
      {
        "astId": 1749,
        "contract": "contracts/ChugSplashBootLoader.sol:ChugSplashBootLoader",
        "label": "proxyUpdater",
        "offset": 0,
        "slot": "0",
        "type": "t_contract(ProxyUpdater)3739"
      },
      {
        "astId": 1753,
        "contract": "contracts/ChugSplashBootLoader.sol:ChugSplashBootLoader",
        "label": "registryImplementation",
        "offset": 0,
        "slot": "1",
        "type": "t_contract(ChugSplashRegistry)3697"
      },
      {
        "astId": 1757,
        "contract": "contracts/ChugSplashBootLoader.sol:ChugSplashBootLoader",
        "label": "registryProxy",
        "offset": 0,
        "slot": "2",
        "type": "t_contract(Proxy)232"
      },
      {
        "astId": 1761,
        "contract": "contracts/ChugSplashBootLoader.sol:ChugSplashBootLoader",
        "label": "managerImplementation",
        "offset": 0,
        "slot": "3",
        "type": "t_contract(ChugSplashManager)3404"
      },
      {
        "astId": 1765,
        "contract": "contracts/ChugSplashBootLoader.sol:ChugSplashBootLoader",
        "label": "rootManagerProxy",
        "offset": 0,
        "slot": "4",
        "type": "t_contract(ChugSplashManagerProxy)3453"
      }
    ],
    "types": {
      "t_contract(ChugSplashManager)3404": {
        "encoding": "inplace",
        "label": "contract ChugSplashManager",
        "numberOfBytes": "20"
      },
      "t_contract(ChugSplashManagerProxy)3453": {
        "encoding": "inplace",
        "label": "contract ChugSplashManagerProxy",
        "numberOfBytes": "20"
      },
      "t_contract(ChugSplashRegistry)3697": {
        "encoding": "inplace",
        "label": "contract ChugSplashRegistry",
        "numberOfBytes": "20"
      },
      "t_contract(Proxy)232": {
        "encoding": "inplace",
        "label": "contract Proxy",
        "numberOfBytes": "20"
      },
      "t_contract(ProxyUpdater)3739": {
        "encoding": "inplace",
        "label": "contract ProxyUpdater",
        "numberOfBytes": "20"
      }
    }
  }
}