{"abi":[{"type":"function","name":"exec","inputs":[{"name":"_to","type":"address","internalType":"address payable"},{"name":"_data","type":"bytes","internalType":"bytes"}],"outputs":[{"name":"","type":"bytes","internalType":"bytes"}],"stateMutability":"payable"},{"type":"event","name":"Called","inputs":[{"name":"relayer","type":"address","indexed":true,"internalType":"address"},{"name":"to","type":"address","indexed":true,"internalType":"address payable"},{"name":"value","type":"uint256","indexed":false,"internalType":"uint256"},{"name":"dataHash","type":"bytes32","indexed":true,"internalType":"bytes32"}],"anonymous":false}],"bytecode":{"object":"0x608060405234801561001057600080fd5b50600160008190555061069a806100286000396000f3fe60806040526004361061001e5760003560e01c8063be6002c214610023575b600080fd5b61003d600480360381019061003891906102db565b610053565b60405161004a9190610422565b60405180910390f35b606061005d610222565b600073ffffffffffffffffffffffffffffffffffffffff168473ffffffffffffffffffffffffffffffffffffffff1614156100cd576040517f08c379a00000000000000000000000000000000000000000000000000000000081526004016100c490610464565b60405180910390fd5b82826040516100dd929190610409565b60405180910390208473ffffffffffffffffffffffffffffffffffffffff163373ffffffffffffffffffffffffffffffffffffffff167f572f161235911da04685a68c06adf558fc7e4a36909dca394650e0adc19cc93d3460405161014291906104a4565b60405180910390a46000808573ffffffffffffffffffffffffffffffffffffffff16348686604051610175929190610409565b60006040518083038185875af1925050503d80600081146101b2576040519150601f19603f3d011682016040523d82523d6000602084013e6101b7565b606091505b50915091508161020e57600081511415610206576040517f08c379a00000000000000000000000000000000000000000000000000000000081526004016101fd90610444565b60405180910390fd5b805181602001fd5b809250505061021b610272565b9392505050565b60026000541415610268576040517f08c379a000000000000000000000000000000000000000000000000000000000815260040161025f90610484565b60405180910390fd5b6002600081905550565b6001600081905550565b60008135905061028b8161064d565b92915050565b60008083601f8401126102a357600080fd5b8235905067ffffffffffffffff8111156102bc57600080fd5b6020830191508360018202830111156102d457600080fd5b9250929050565b6000806000604084860312156102f057600080fd5b60006102fe8682870161027c565b935050602084013567ffffffffffffffff81111561031b57600080fd5b61032786828701610291565b92509250509250925092565b600061033f83856104db565b935061034c838584610533565b82840190509392505050565b6000610363826104bf565b61036d81856104ca565b935061037d818560208601610542565b61038681610575565b840191505092915050565b600061039e6032836104e6565b91506103a982610586565b604082019050919050565b60006103c16029836104e6565b91506103cc826105d5565b604082019050919050565b60006103e4601f836104e6565b91506103ef82610624565b602082019050919050565b61040381610529565b82525050565b6000610416828486610333565b91508190509392505050565b6000602082019050818103600083015261043c8184610358565b905092915050565b6000602082019050818103600083015261045d81610391565b9050919050565b6000602082019050818103600083015261047d816103b4565b9050919050565b6000602082019050818103600083015261049d816103d7565b9050919050565b60006020820190506104b960008301846103fa565b92915050565b600081519050919050565b600082825260208201905092915050565b600081905092915050565b600082825260208201905092915050565b600061050282610509565b9050919050565b600073ffffffffffffffffffffffffffffffffffffffff82169050919050565b6000819050919050565b82818337600083830152505050565b60005b83811015610560578082015181840152602081019050610545565b8381111561056f576000848401525b50505050565b6000601f19601f8301169050919050565b7f5065726d697373696f6e6c65737352656c61793a205472616e73616374696f6e60008201527f2072657665727465642073696c656e746c790000000000000000000000000000602082015250565b7f5065726d697373696f6e6c65737352656c61793a20746172676574206973206160008201527f6464726573732830290000000000000000000000000000000000000000000000602082015250565b7f5265656e7472616e637947756172643a207265656e7472616e742063616c6c00600082015250565b610656816104f7565b811461066157600080fd5b5056fea26469706673582212201d88bc3b8cda621b7d980295ef54db4d2ae21e1f206ea6a59db6551b909fa9fa64736f6c63430008040033","linkReferences":{}},"methodIdentifiers":{"exec(address,bytes)":"be6002c2"},"storageLayout":{"storage":[{"astId":59266,"contract":"contracts/core/PermissionlessRelay.sol:PermissionlessRelay","label":"_status","offset":0,"slot":"0","type":"t_uint256"}],"types":{"t_uint256":{"encoding":"inplace","label":"uint256","numberOfBytes":"32"}}},"id":1}