{"abi":[{"type":"constructor","inputs":[],"stateMutability":"nonpayable"},{"type":"function","name":"VERSION","inputs":[],"outputs":[{"name":"","type":"string","internalType":"string"}],"stateMutability":"view"},{"type":"function","name":"activeMerkleRoot","inputs":[],"outputs":[{"name":"","type":"bytes32","internalType":"bytes32"}],"stateMutability":"view"},{"type":"function","name":"approve","inputs":[{"name":"_root","type":"bytes32","internalType":"bytes32"},{"name":"_leafWithProof","type":"tuple","internalType":"struct SphinxLeafWithProof","components":[{"name":"leaf","type":"tuple","internalType":"struct SphinxLeaf","components":[{"name":"chainId","type":"uint256","internalType":"uint256"},{"name":"index","type":"uint256","internalType":"uint256"},{"name":"leafType","type":"uint8","internalType":"enum SphinxLeafType"},{"name":"data","type":"bytes","internalType":"bytes"}]},{"name":"proof","type":"bytes32[]","internalType":"bytes32[]"}]},{"name":"_signatures","type":"bytes","internalType":"bytes"}],"outputs":[],"stateMutability":"nonpayable"},{"type":"function","name":"cancel","inputs":[{"name":"_root","type":"bytes32","internalType":"bytes32"},{"name":"_leafWithProof","type":"tuple","internalType":"struct SphinxLeafWithProof","components":[{"name":"leaf","type":"tuple","internalType":"struct SphinxLeaf","components":[{"name":"chainId","type":"uint256","internalType":"uint256"},{"name":"index","type":"uint256","internalType":"uint256"},{"name":"leafType","type":"uint8","internalType":"enum SphinxLeafType"},{"name":"data","type":"bytes","internalType":"bytes"}]},{"name":"proof","type":"bytes32[]","internalType":"bytes32[]"}]},{"name":"_signatures","type":"bytes","internalType":"bytes"}],"outputs":[],"stateMutability":"nonpayable"},{"type":"function","name":"execute","inputs":[{"name":"_leavesWithProofs","type":"tuple[]","internalType":"struct SphinxLeafWithProof[]","components":[{"name":"leaf","type":"tuple","internalType":"struct SphinxLeaf","components":[{"name":"chainId","type":"uint256","internalType":"uint256"},{"name":"index","type":"uint256","internalType":"uint256"},{"name":"leafType","type":"uint8","internalType":"enum SphinxLeafType"},{"name":"data","type":"bytes","internalType":"bytes"}]},{"name":"proof","type":"bytes32[]","internalType":"bytes32[]"}]}],"outputs":[],"stateMutability":"nonpayable"},{"type":"function","name":"initialize","inputs":[{"name":"_safeProxy","type":"address","internalType":"address"}],"outputs":[],"stateMutability":"nonpayable"},{"type":"function","name":"merkleRootNonce","inputs":[],"outputs":[{"name":"","type":"uint256","internalType":"uint256"}],"stateMutability":"view"},{"type":"function","name":"merkleRootStates","inputs":[{"name":"","type":"bytes32","internalType":"bytes32"}],"outputs":[{"name":"numLeaves","type":"uint256","internalType":"uint256"},{"name":"leavesExecuted","type":"uint256","internalType":"uint256"},{"name":"uri","type":"string","internalType":"string"},{"name":"executor","type":"address","internalType":"address"},{"name":"status","type":"uint8","internalType":"enum MerkleRootStatus"},{"name":"arbitraryChain","type":"bool","internalType":"bool"}],"stateMutability":"view"},{"type":"function","name":"safeProxy","inputs":[],"outputs":[{"name":"","type":"address","internalType":"address payable"}],"stateMutability":"view"},{"type":"event","name":"Initialized","inputs":[{"name":"version","type":"uint8","indexed":false,"internalType":"uint8"}],"anonymous":false},{"type":"event","name":"SphinxActionFailed","inputs":[{"name":"merkleRoot","type":"bytes32","indexed":true,"internalType":"bytes32"},{"name":"leafIndex","type":"uint256","indexed":false,"internalType":"uint256"}],"anonymous":false},{"type":"event","name":"SphinxActionSucceeded","inputs":[{"name":"merkleRoot","type":"bytes32","indexed":true,"internalType":"bytes32"},{"name":"leafIndex","type":"uint256","indexed":false,"internalType":"uint256"}],"anonymous":false},{"type":"event","name":"SphinxMerkleRootApproved","inputs":[{"name":"merkleRoot","type":"bytes32","indexed":true,"internalType":"bytes32"},{"name":"nonce","type":"uint256","indexed":true,"internalType":"uint256"},{"name":"executor","type":"address","indexed":false,"internalType":"address"},{"name":"numLeaves","type":"uint256","indexed":false,"internalType":"uint256"},{"name":"uri","type":"string","indexed":false,"internalType":"string"}],"anonymous":false},{"type":"event","name":"SphinxMerkleRootCanceled","inputs":[{"name":"completedMerkleRoot","type":"bytes32","indexed":true,"internalType":"bytes32"},{"name":"canceledMerkleRoot","type":"bytes32","indexed":true,"internalType":"bytes32"},{"name":"nonce","type":"uint256","indexed":true,"internalType":"uint256"},{"name":"executor","type":"address","indexed":false,"internalType":"address"},{"name":"uri","type":"string","indexed":false,"internalType":"string"}],"anonymous":false},{"type":"event","name":"SphinxMerkleRootCompleted","inputs":[{"name":"merkleRoot","type":"bytes32","indexed":true,"internalType":"bytes32"}],"anonymous":false},{"type":"event","name":"SphinxMerkleRootFailed","inputs":[{"name":"merkleRoot","type":"bytes32","indexed":true,"internalType":"bytes32"},{"name":"leafIndex","type":"uint256","indexed":false,"internalType":"uint256"}],"anonymous":false}],"bytecode":{"object":"0x60806040523480156200001157600080fd5b5060016000819055506200002a6200003060201b60201c565b620001db565b60018054906101000a900460ff161562000081576040517f08c379a000000000000000000000000000000000000000000000000000000000815260040162000078906200012f565b60405180910390fd5b60ff8016600160009054906101000a900460ff1660ff1614620000f55760ff600160006101000a81548160ff021916908360ff1602179055507f7f26b83ff96e1f2b6a682f133852f6798a09c465da95921460cefb384740249860ff604051620000ec919062000151565b60405180910390a15b565b6000620001066027836200016e565b915062000113826200018c565b604082019050919050565b62000129816200017f565b82525050565b600060208201905081810360008301526200014a81620000f7565b9050919050565b60006020820190506200016860008301846200011e565b92915050565b600082825260208201905092915050565b600060ff82169050919050565b7f496e697469616c697a61626c653a20636f6e747261637420697320696e69746960008201527f616c697a696e6700000000000000000000000000000000000000000000000000602082015250565b61413080620001eb6000396000f3fe608060405234801561001057600080fd5b50600436106100935760003560e01c80638f38f835116100665780638f38f8351461012557806397c4f58914610141578063c4d66de81461015f578063e65ec46d1461017b578063ffa1ad741461019757610093565b80630a04d9e61461009857806329cd7aa9146100b657806372552e49146100d2578063783c567914610107575b600080fd5b6100a06101b5565b6040516100ad9190613534565b60405180910390f35b6100d060048036038101906100cb9190612a03565b6101bb565b005b6100ec60048036038101906100e791906129da565b610a4e565b6040516100fe9695949392919061354f565b60405180910390f35b61010f610b4c565b60405161011c9190613060565b60405180910390f35b61013f600480360381019061013a9190612a03565b610b72565b005b610149611477565b6040516101569190613135565b60405180910390f35b61017960048036038101906101749190612726565b61147d565b005b61019560048036038101906101909190612970565b611828565b005b61019f611fea565b6040516101ac9190613210565b60405180910390f35b60035481565b6101c3612023565b6000801b831415610209576040517f08c379a000000000000000000000000000000000000000000000000000000000815260040161020090613292565b60405180910390fd5b6000801b6004541415610251576040517f08c379a0000000000000000000000000000000000000000000000000000000008152600401610248906133d2565b60405180910390fd5b6000600260008581526020019081526020016000209050600060048111156102a2577f4e487b7100000000000000000000000000000000000000000000000000000000600052602160045260246000fd5b8160030160149054906101000a900460ff1660048111156102ec577f4e487b7100000000000000000000000000000000000000000000000000000000600052602160045260246000fd5b1461032c576040517f08c379a000000000000000000000000000000000000000000000000000000000815260040161032390613392565b60405180910390fd5b60008360000151905061034c84602001518661034784612073565b6120c9565b61038b576040517f08c379a0000000000000000000000000000000000000000000000000000000008152600401610382906134b2565b60405180910390fd5b6002808111156103c4577f4e487b7100000000000000000000000000000000000000000000000000000000600052602160045260246000fd5b81604001516002811115610401577f4e487b7100000000000000000000000000000000000000000000000000000000600052602160045260246000fd5b14610441576040517f08c379a0000000000000000000000000000000000000000000000000000000008152600401610438906132f2565b60405180910390fd5b6000816020015114610488576040517f08c379a000000000000000000000000000000000000000000000000000000000815260040161047f90613232565b60405180910390fd5b60008060008060008086606001518060200190518101906104a99190612778565b955095509550955095509550600560009054906101000a900473ffffffffffffffffffffffffffffffffffffffff1673ffffffffffffffffffffffffffffffffffffffff168673ffffffffffffffffffffffffffffffffffffffff1614610545576040517f08c379a000000000000000000000000000000000000000000000000000000000815260040161053c90613492565b60405180910390fd5b3073ffffffffffffffffffffffffffffffffffffffff168573ffffffffffffffffffffffffffffffffffffffff16146105b3576040517f08c379a00000000000000000000000000000000000000000000000000000000081526004016105aa906134f2565b60405180910390fd5b60035484146105f7576040517f08c379a00000000000000000000000000000000000000000000000000000000081526004016105ee90613432565b60405180910390fd5b600454831461063b576040517f08c379a000000000000000000000000000000000000000000000000000000000815260040161063290613412565b60405180910390fd5b3373ffffffffffffffffffffffffffffffffffffffff168273ffffffffffffffffffffffffffffffffffffffff16146106a9576040517f08c379a00000000000000000000000000000000000000000000000000000000081526004016106a090613252565b60405180910390fd5b468760000151146106ef576040517f08c379a00000000000000000000000000000000000000000000000000000000081526004016106e690613312565b60405180910390fd5b83838c7fbd735b1d507113b14844a118f9b9938b54610adafc574e9cdcd67335131ad717338560405161072392919061307b565b60405180910390a460036002600085815260200190815260200160002060030160146101000a81548160ff0219169083600481111561078b577f4e487b7100000000000000000000000000000000000000000000000000000000600052602160045260246000fd5b02179055506000801b6004819055508a7f4383d976757d67ca920616be0b6430a681ea9d3dcce8d6d61d4603ca4a9bff6360405160405180910390a26001886000018190555060018860010181905550808860020190805190602001906107f39291906121cb565b50338860030160006101000a81548173ffffffffffffffffffffffffffffffffffffffff021916908373ffffffffffffffffffffffffffffffffffffffff16021790555060028860030160146101000a81548160ff02191690836004811115610885577f4e487b7100000000000000000000000000000000000000000000000000000000600052602160045260246000fd5b02179055506001840160038190555060007fb03948446334eb9b2196d5eb166f69b9d49403eb4a12f36de8d3f9f3cb8e15c36040518060400160405280600681526020017f537068696e780000000000000000000000000000000000000000000000000000815250805190602001206040518060400160405280600581526020017f312e302e300000000000000000000000000000000000000000000000000000008152508051906020012060405160200161094393929190613179565b604051602081830303815290604052805190602001207f0cb314254867c611b4ba06dea78882bd68b33649e1ddb950d6db2ee328a55ad08d60405160200161098c929190613150565b604051602081830303815290604052805190602001206040516020016109b3929190613029565b60405160208183030381529060405290508673ffffffffffffffffffffffffffffffffffffffff1663934f3a118280519060200120838d6040518463ffffffff1660e01b8152600401610a08939291906131b0565b60006040518083038186803b158015610a2057600080fd5b505afa158015610a34573d6000803e3d6000fd5b50505050505050505050505050610a496120e0565b505050565b6002602052806000526040600020600091509050806000015490806001015490806002018054610a7d906138ff565b80601f0160208091040260200160405190810160405280929190818152602001828054610aa9906138ff565b8015610af65780601f10610acb57610100808354040283529160200191610af6565b820191906000526020600020905b815481529060010190602001808311610ad957829003601f168201915b5050505050908060030160009054906101000a900473ffffffffffffffffffffffffffffffffffffffff16908060030160149054906101000a900460ff16908060030160159054906101000a900460ff16905086565b600560009054906101000a900473ffffffffffffffffffffffffffffffffffffffff1681565b610b7a612023565b6000801b831415610bc0576040517f08c379a0000000000000000000000000000000000000000000000000000000008152600401610bb790613292565b60405180910390fd5b6000801b60045414610c07576040517f08c379a0000000000000000000000000000000000000000000000000000000008152600401610bfe906133f2565b60405180910390fd5b600060026000858152602001908152602001600020905060006004811115610c58577f4e487b7100000000000000000000000000000000000000000000000000000000600052602160045260246000fd5b8160030160149054906101000a900460ff166004811115610ca2577f4e487b7100000000000000000000000000000000000000000000000000000000600052602160045260246000fd5b14610ce2576040517f08c379a0000000000000000000000000000000000000000000000000000000008152600401610cd990613392565b60405180910390fd5b600083600001519050610d02846020015186610cfd84612073565b6120c9565b610d41576040517f08c379a0000000000000000000000000000000000000000000000000000000008152600401610d38906134b2565b60405180910390fd5b60006002811115610d7b577f4e487b7100000000000000000000000000000000000000000000000000000000600052602160045260246000fd5b81604001516002811115610db8577f4e487b7100000000000000000000000000000000000000000000000000000000600052602160045260246000fd5b14610df8576040517f08c379a0000000000000000000000000000000000000000000000000000000008152600401610def906132f2565b60405180910390fd5b6000816020015114610e3f576040517f08c379a0000000000000000000000000000000000000000000000000000000008152600401610e3690613232565b60405180910390fd5b60008060008060008060008760600151806020019051810190610e629190612819565b9650965096509650965096509650600560009054906101000a900473ffffffffffffffffffffffffffffffffffffffff1673ffffffffffffffffffffffffffffffffffffffff168773ffffffffffffffffffffffffffffffffffffffff1614610f00576040517f08c379a0000000000000000000000000000000000000000000000000000000008152600401610ef790613492565b60405180910390fd5b3073ffffffffffffffffffffffffffffffffffffffff168673ffffffffffffffffffffffffffffffffffffffff1614610f6e576040517f08c379a0000000000000000000000000000000000000000000000000000000008152600401610f65906134f2565b60405180910390fd5b6003548514610fb2576040517f08c379a0000000000000000000000000000000000000000000000000000000008152600401610fa990613432565b60405180910390fd5b60008411610ff5576040517f08c379a0000000000000000000000000000000000000000000000000000000008152600401610fec90613472565b60405180910390fd5b3373ffffffffffffffffffffffffffffffffffffffff168373ffffffffffffffffffffffffffffffffffffffff1614611063576040517f08c379a000000000000000000000000000000000000000000000000000000000815260040161105a90613252565b60405180910390fd5b46886000015114806110725750805b6110b1576040517f08c379a00000000000000000000000000000000000000000000000000000000081526004016110a890613312565b60405180910390fd5b8015806110c2575060008860000151145b611101576040517f08c379a00000000000000000000000000000000000000000000000000000000081526004016110f890613452565b60405180910390fd5b848c7f382c7aec02462c9b086aba9a7f8dbb1fb8bf336e7b624b0149eeca6726d0fb4a338786604051611136939291906130f7565b60405180910390a383896000018190555060018960010181905550818960020190805190602001906111699291906121cb565b50338960030160006101000a81548173ffffffffffffffffffffffffffffffffffffffff021916908373ffffffffffffffffffffffffffffffffffffffff160217905550808960030160156101000a81548160ff021916908315150217905550600185016003819055506001841415611261578b7f4383d976757d67ca920616be0b6430a681ea9d3dcce8d6d61d4603ca4a9bff6360405160405180910390a260028960030160146101000a81548160ff02191690836004811115611257577f4e487b7100000000000000000000000000000000000000000000000000000000600052602160045260246000fd5b02179055506112bc565b60018960030160146101000a81548160ff021916908360048111156112af577f4e487b7100000000000000000000000000000000000000000000000000000000600052602160045260246000fd5b02179055508b6004819055505b60007fb03948446334eb9b2196d5eb166f69b9d49403eb4a12f36de8d3f9f3cb8e15c36040518060400160405280600681526020017f537068696e780000000000000000000000000000000000000000000000000000815250805190602001206040518060400160405280600581526020017f312e302e300000000000000000000000000000000000000000000000000000008152508051906020012060405160200161136b93929190613179565b604051602081830303815290604052805190602001207f0cb314254867c611b4ba06dea78882bd68b33649e1ddb950d6db2ee328a55ad08e6040516020016113b4929190613150565b604051602081830303815290604052805190602001206040516020016113db929190613029565b60405160208183030381529060405290508773ffffffffffffffffffffffffffffffffffffffff1663934f3a118280519060200120838e6040518463ffffffff1660e01b8152600401611430939291906131b0565b60006040518083038186803b15801561144857600080fd5b505afa15801561145c573d6000803e3d6000fd5b50505050505050505050505050506114726120e0565b505050565b60045481565b600060018054906101000a900460ff161590508080156114ae575060018060009054906101000a900460ff1660ff16105b806114dc57506114bd306120ea565b1580156114db575060018060009054906101000a900460ff1660ff16145b5b61151b576040517f08c379a000000000000000000000000000000000000000000000000000000000815260040161151290613372565b60405180910390fd5b60018060006101000a81548160ff021916908360ff16021790555080156115575760018060016101000a81548160ff0219169083151502179055505b600073ffffffffffffffffffffffffffffffffffffffff168273ffffffffffffffffffffffffffffffffffffffff1614156115c7576040517f08c379a00000000000000000000000000000000000000000000000000000000081526004016115be906133b2565b60405180910390fd5b60008273ffffffffffffffffffffffffffffffffffffffff1663a619486e6040518163ffffffff1660e01b815260040160206040518083038186803b15801561160f57600080fd5b505afa158015611623573d6000803e3d6000fd5b505050506040513d601f19601f82011682018060405250810190611647919061274f565b905060008173ffffffffffffffffffffffffffffffffffffffff1663ffa1ad746040518163ffffffff1660e01b815260040160006040518083038186803b15801561169157600080fd5b505afa1580156116a5573d6000803e3d6000fd5b505050506040513d6000823e3d601f19601f820116820180604052508101906116ce9190612a82565b90506000816040516020016116e39190613012565b6040516020818303038152906040528051906020012090507f6a08c3e203132c561752255a4d52ffae85bb9c5d33cb3291520dea1b8435638981148061174857507f7015c1a48403d132ad83884b326109f1b309c42f752b2abd1db79522ee07467381145b611787576040517f08c379a000000000000000000000000000000000000000000000000000000000815260040161177e90613332565b60405180910390fd5b84600560006101000a81548173ffffffffffffffffffffffffffffffffffffffff021916908373ffffffffffffffffffffffffffffffffffffffff16021790555050505080156118245760006001806101000a81548160ff0219169083151502179055507f7f26b83ff96e1f2b6a682f133852f6798a09c465da95921460cefb3847402498600160405161181b91906131f5565b60405180910390a15b5050565b611830612023565b60008151905060008111611879576040517f08c379a000000000000000000000000000000000000000000000000000000000815260040161187090613272565b60405180910390fd5b600060045490506000801b8114156118c6576040517f08c379a00000000000000000000000000000000000000000000000000000000081526004016118bd906132b2565b60405180910390fd5b60006002600083815260200190815260200160002090503373ffffffffffffffffffffffffffffffffffffffff168160030160009054906101000a900473ffffffffffffffffffffffffffffffffffffffff1673ffffffffffffffffffffffffffffffffffffffff161461196f576040517f08c379a000000000000000000000000000000000000000000000000000000000815260040161196690613252565b60405180910390fd5b600081600101549050838161198491906136ea565b826000015410156119ca576040517f08c379a00000000000000000000000000000000000000000000000000000000081526004016119c1906132d2565b60405180910390fd5b60008260030160159054906101000a900460ff1690506119e8612251565b606060005b87811015611f3657888181518110611a2e577f4e487b7100000000000000000000000000000000000000000000000000000000600052603260045260246000fd5b6020026020010151600001519250888181518110611a75577f4e487b7100000000000000000000000000000000000000000000000000000000600052603260045260246000fd5b6020026020010151602001519150611a968288611a9186612073565b6120c9565b611ad5576040517f08c379a0000000000000000000000000000000000000000000000000000000008152600401611acc906134b2565b60405180910390fd5b60016002811115611b0f577f4e487b7100000000000000000000000000000000000000000000000000000000600052602160045260246000fd5b83604001516002811115611b4c577f4e487b7100000000000000000000000000000000000000000000000000000000600052602160045260246000fd5b14611b8c576040517f08c379a0000000000000000000000000000000000000000000000000000000008152600401611b83906132f2565b60405180910390fd5b84836020015114611bd2576040517f08c379a0000000000000000000000000000000000000000000000000000000008152600401611bc990613232565b60405180910390fd5b4683600001511480611be15750835b611c20576040517f08c379a0000000000000000000000000000000000000000000000000000000008152600401611c1790613312565b60405180910390fd5b831580611c31575060008360000151145b611c70576040517f08c379a0000000000000000000000000000000000000000000000000000000008152600401611c6790613452565b60405180910390fd5b6000806000806000808860600151806020019051810190611c9191906128cf565b95509550955095509550955060018b611caa91906136ea565b9a506000612710603f604087611cc09190613771565b611cca9190613740565b611cd491906136ea565b5a1015611d16576040517f08c379a0000000000000000000000000000000000000000000000000000000008152600401611d0d90613352565b60405180910390fd5b600560009054906101000a900473ffffffffffffffffffffffffffffffffffffffff1673ffffffffffffffffffffffffffffffffffffffff1663468721a786898988886040518663ffffffff1660e01b8152600401611d7894939291906130ab565b602060405180830381600088803b158015611d9257600080fd5b5087f193505050508015611dc457506040513d601f19601f82011682018060405250810190611dc191906129b1565b60015b611dcd57611dd2565b809150505b8015611e19578d7fa65fb05c5808f5f389d72edeaf719ce38f4cc55c1f69ca3cbfb31c21501caa078b60200151604051611e0c9190613534565b60405180910390a2611e56565b8d7f05612698ed8f42586165f420abc8164c188065d389e9ba48b1df7795b5a21d4d8b60200151604051611e4d9190613534565b60405180910390a25b80158015611e615750815b15611f1c578d7f32188c23fa533cb5bdaaf4eb969c99d38e0faf67f824e694d3d53c3ad5104fa08b60200151604051611e9a9190613534565b60405180910390a260048d60030160146101000a81548160ff02191690836004811115611ef0577f4e487b7100000000000000000000000000000000000000000000000000000000600052602160045260246000fd5b02179055508b8d600101819055506000801b600481905550505050505050505050505050505050611fdf565b505050505050508080611f2e90613962565b9150506119ed565b508385600101819055508460000154841415611fd757857f4383d976757d67ca920616be0b6430a681ea9d3dcce8d6d61d4603ca4a9bff6360405160405180910390a260028560030160146101000a81548160ff02191690836004811115611fc7577f4e487b7100000000000000000000000000000000000000000000000000000000600052602160045260246000fd5b02179055506000801b6004819055505b505050505050505b611fe76120e0565b50565b6040518060400160405280600581526020017f312e302e3000000000000000000000000000000000000000000000000000000081525081565b60026000541415612069576040517f08c379a0000000000000000000000000000000000000000000000000000000008152600401612060906134d2565b60405180910390fd5b6002600081905550565b6000816040516020016120869190613512565b604051602081830303815290604052805190602001206040516020016120ac9190612ff7565b604051602081830303815290604052805190602001209050919050565b6000826120d6858461210d565b1490509392505050565b6001600081905550565b6000808273ffffffffffffffffffffffffffffffffffffffff163b119050919050565b60008082905060005b845181101561217e576121698286838151811061215c577f4e487b7100000000000000000000000000000000000000000000000000000000600052603260045260246000fd5b6020026020010151612189565b9150808061217690613962565b915050612116565b508091505092915050565b60008183106121a15761219c82846121b4565b6121ac565b6121ab83836121b4565b5b905092915050565b600082600052816020526040600020905092915050565b8280546121d7906138ff565b90600052602060002090601f0160209004810192826121f95760008555612240565b82601f1061221257805160ff1916838001178555612240565b82800160010185558215612240579182015b8281111561223f578251825591602001919060010190612224565b5b50905061224d91906122b1565b5090565b60405180608001604052806000815260200160008152602001600060028111156122a4577f4e487b7100000000000000000000000000000000000000000000000000000000600052602160045260246000fd5b8152602001606081525090565b5b808211156122ca5760008160009055506001016122b2565b5090565b60006122e16122dc846135dc565b6135b7565b9050808382526020820190508285602086028201111561230057600080fd5b60005b8581101561233057816123168882612522565b845260208401935060208301925050600181019050612303565b5050509392505050565b600061234d61234884613608565b6135b7565b9050808382526020820190508285602086028201111561236c57600080fd5b60005b858110156123b657813567ffffffffffffffff81111561238e57600080fd5b80860161239b89826125f4565b8552602085019450602084019350505060018101905061236f565b5050509392505050565b60006123d36123ce84613634565b6135b7565b9050828152602081018484840111156123eb57600080fd5b6123f68482856138bd565b509392505050565b600061241161240c84613634565b6135b7565b90508281526020810184848401111561242957600080fd5b6124348482856138cc565b509392505050565b600061244f61244a84613665565b6135b7565b90508281526020810184848401111561246757600080fd5b6124728482856138cc565b509392505050565b60008135905061248981614067565b92915050565b60008151905061249e81614067565b92915050565b6000815190506124b38161407e565b92915050565b600082601f8301126124ca57600080fd5b81356124da8482602086016122ce565b91505092915050565b600082601f8301126124f457600080fd5b813561250484826020860161233a565b91505092915050565b60008151905061251c81614095565b92915050565b600081359050612531816140ac565b92915050565b600081519050612546816140ac565b92915050565b600082601f83011261255d57600080fd5b813561256d8482602086016123c0565b91505092915050565b600082601f83011261258757600080fd5b81516125978482602086016123fe565b91505092915050565b6000815190506125af816140c3565b92915050565b6000813590506125c4816140d3565b92915050565b600082601f8301126125db57600080fd5b81516125eb84826020860161243c565b91505092915050565b60006040828403121561260657600080fd5b61261060406135b7565b9050600082013567ffffffffffffffff81111561262c57600080fd5b61263884828501612670565b600083015250602082013567ffffffffffffffff81111561265857600080fd5b612664848285016124b9565b60208301525092915050565b60006080828403121561268257600080fd5b61268c60806135b7565b9050600061269c848285016126fc565b60008301525060206126b0848285016126fc565b60208301525060406126c4848285016125b5565b604083015250606082013567ffffffffffffffff8111156126e457600080fd5b6126f08482850161254c565b60608301525092915050565b60008135905061270b816140e3565b92915050565b600081519050612720816140e3565b92915050565b60006020828403121561273857600080fd5b60006127468482850161247a565b91505092915050565b60006020828403121561276157600080fd5b600061276f8482850161248f565b91505092915050565b60008060008060008060c0878903121561279157600080fd5b600061279f89828a016124a4565b96505060206127b089828a016124a4565b95505060406127c189828a01612711565b94505060606127d289828a01612537565b93505060806127e389828a016124a4565b92505060a087015167ffffffffffffffff81111561280057600080fd5b61280c89828a016125ca565b9150509295509295509295565b600080600080600080600060e0888a03121561283457600080fd5b60006128428a828b016124a4565b97505060206128538a828b016124a4565b96505060406128648a828b01612711565b95505060606128758a828b01612711565b94505060806128868a828b016124a4565b93505060a088015167ffffffffffffffff8111156128a357600080fd5b6128af8a828b016125ca565b92505060c06128c08a828b0161250d565b91505092959891949750929550565b60008060008060008060c087890312156128e857600080fd5b60006128f689828a016124a4565b965050602061290789828a01612711565b955050604061291889828a01612711565b945050606087015167ffffffffffffffff81111561293557600080fd5b61294189828a01612576565b935050608061295289828a016125a0565b92505060a061296389828a0161250d565b9150509295509295509295565b60006020828403121561298257600080fd5b600082013567ffffffffffffffff81111561299c57600080fd5b6129a8848285016124e3565b91505092915050565b6000602082840312156129c357600080fd5b60006129d18482850161250d565b91505092915050565b6000602082840312156129ec57600080fd5b60006129fa84828501612522565b91505092915050565b600080600060608486031215612a1857600080fd5b6000612a2686828701612522565b935050602084013567ffffffffffffffff811115612a4357600080fd5b612a4f868287016125f4565b925050604084013567ffffffffffffffff811115612a6c57600080fd5b612a788682870161254c565b9150509250925092565b600060208284031215612a9457600080fd5b600082015167ffffffffffffffff811115612aae57600080fd5b612aba848285016125ca565b91505092915050565b612acc816137dd565b82525050565b612adb816137cb565b82525050565b612aea816137ef565b82525050565b612af9816137fb565b82525050565b612b10612b0b826137fb565b6139ab565b82525050565b6000612b2182613696565b612b2b81856136ac565b9350612b3b8185602086016138cc565b612b4481613aa0565b840191505092915050565b6000612b5a82613696565b612b6481856136bd565b9350612b748185602086016138cc565b612b7d81613aa0565b840191505092915050565b612b9181613875565b82525050565b612ba081613887565b82525050565b612baf81613899565b82525050565b612bbe816138ab565b82525050565b6000612bcf826136a1565b612bd981856136ce565b9350612be98185602086016138cc565b612bf281613aa0565b840191505092915050565b6000612c08826136a1565b612c1281856136df565b9350612c228185602086016138cc565b80840191505092915050565b6000612c3b6020836136ce565b9150612c4682613ab1565b602082019050919050565b6000612c5e6023836136ce565b9150612c6982613ada565b604082019050919050565b6000612c816002836136df565b9150612c8c82613b29565b600282019050919050565b6000612ca46022836136ce565b9150612caf82613b52565b604082019050919050565b6000612cc7601a836136ce565b9150612cd282613ba1565b602082019050919050565b6000612cea601c836136ce565b9150612cf582613bca565b602082019050919050565b6000612d0d6026836136ce565b9150612d1882613bf3565b604082019050919050565b6000612d30601f836136ce565b9150612d3b82613c42565b602082019050919050565b6000612d53601e836136ce565b9150612d5e82613c6b565b602082019050919050565b6000612d766022836136ce565b9150612d8182613c94565b604082019050919050565b6000612d99601e836136ce565b9150612da482613ce3565b602082019050919050565b6000612dbc602e836136ce565b9150612dc782613d0c565b604082019050919050565b6000612ddf601f836136ce565b9150612dea82613d5b565b602082019050919050565b6000612e026022836136ce565b9150612e0d82613d84565b604082019050919050565b6000612e25601f836136ce565b9150612e3082613dd3565b602082019050919050565b6000612e486020836136ce565b9150612e5382613dfc565b602082019050919050565b6000612e6b6024836136ce565b9150612e7682613e25565b604082019050919050565b6000612e8e601b836136ce565b9150612e9982613e74565b602082019050919050565b6000612eb16025836136ce565b9150612ebc82613e9d565b604082019050919050565b6000612ed46023836136ce565b9150612edf82613eec565b604082019050919050565b6000612ef7601f836136ce565b9150612f0282613f3b565b602082019050919050565b6000612f1a6023836136ce565b9150612f2582613f64565b604082019050919050565b6000612f3d601f836136ce565b9150612f4882613fb3565b602082019050919050565b6000612f606027836136ce565b9150612f6b82613fdc565b604082019050919050565b6000608083016000830151612f8e6000860182612fd9565b506020830151612fa16020860182612fd9565b506040830151612fb46040860182612ba6565b5060608301518482036060860152612fcc8282612b16565b9150508091505092915050565b612fe28161385e565b82525050565b612ff18161385e565b82525050565b60006130038284612aff565b60208201915081905092915050565b600061301e8284612bfd565b915081905092915050565b600061303482612c74565b91506130408285612aff565b6020820191506130508284612aff565b6020820191508190509392505050565b60006020820190506130756000830184612ac3565b92915050565b60006040820190506130906000830185612ad2565b81810360208301526130a28184612bc4565b90509392505050565b60006080820190506130c06000830187612ad2565b6130cd6020830186612fe8565b81810360408301526130df8185612b4f565b90506130ee6060830184612b97565b95945050505050565b600060608201905061310c6000830186612ad2565b6131196020830185612fe8565b818103604083015261312b8184612bc4565b9050949350505050565b600060208201905061314a6000830184612af0565b92915050565b60006040820190506131656000830185612af0565b6131726020830184612af0565b9392505050565b600060608201905061318e6000830186612af0565b61319b6020830185612af0565b6131a86040830184612af0565b949350505050565b60006060820190506131c56000830186612af0565b81810360208301526131d78185612b4f565b905081810360408301526131eb8184612b4f565b9050949350505050565b600060208201905061320a6000830184612bb5565b92915050565b6000602082019050818103600083015261322a8184612bc4565b905092915050565b6000602082019050818103600083015261324b81612c2e565b9050919050565b6000602082019050818103600083015261326b81612c51565b9050919050565b6000602082019050818103600083015261328b81612c97565b9050919050565b600060208201905081810360008301526132ab81612cba565b9050919050565b600060208201905081810360008301526132cb81612cdd565b9050919050565b600060208201905081810360008301526132eb81612d00565b9050919050565b6000602082019050818103600083015261330b81612d23565b9050919050565b6000602082019050818103600083015261332b81612d46565b9050919050565b6000602082019050818103600083015261334b81612d69565b9050919050565b6000602082019050818103600083015261336b81612d8c565b9050919050565b6000602082019050818103600083015261338b81612daf565b9050919050565b600060208201905081810360008301526133ab81612dd2565b9050919050565b600060208201905081810360008301526133cb81612df5565b9050919050565b600060208201905081810360008301526133eb81612e18565b9050919050565b6000602082019050818103600083015261340b81612e3b565b9050919050565b6000602082019050818103600083015261342b81612e5e565b9050919050565b6000602082019050818103600083015261344b81612e81565b9050919050565b6000602082019050818103600083015261346b81612ea4565b9050919050565b6000602082019050818103600083015261348b81612ec7565b9050919050565b600060208201905081810360008301526134ab81612eea565b9050919050565b600060208201905081810360008301526134cb81612f0d565b9050919050565b600060208201905081810360008301526134eb81612f30565b9050919050565b6000602082019050818103600083015261350b81612f53565b9050919050565b6000602082019050818103600083015261352c8184612f76565b905092915050565b60006020820190506135496000830184612fe8565b92915050565b600060c0820190506135646000830189612fe8565b6135716020830188612fe8565b81810360408301526135838187612bc4565b90506135926060830186612ad2565b61359f6080830185612b88565b6135ac60a0830184612ae1565b979650505050505050565b60006135c16135d2565b90506135cd8282613931565b919050565b6000604051905090565b600067ffffffffffffffff8211156135f7576135f6613a71565b5b602082029050602081019050919050565b600067ffffffffffffffff82111561362357613622613a71565b5b602082029050602081019050919050565b600067ffffffffffffffff82111561364f5761364e613a71565b5b61365882613aa0565b9050602081019050919050565b600067ffffffffffffffff8211156136805761367f613a71565b5b61368982613aa0565b9050602081019050919050565b600081519050919050565b600081519050919050565b600082825260208201905092915050565b600082825260208201905092915050565b600082825260208201905092915050565b600081905092915050565b60006136f58261385e565b91506137008361385e565b9250827fffffffffffffffffffffffffffffffffffffffffffffffffffffffffffffffff03821115613735576137346139b5565b5b828201905092915050565b600061374b8261385e565b91506137568361385e565b925082613766576137656139e4565b5b828204905092915050565b600061377c8261385e565b91506137878361385e565b9250817fffffffffffffffffffffffffffffffffffffffffffffffffffffffffffffffff04831182151516156137c0576137bf6139b5565b5b828202905092915050565b60006137d68261383e565b9050919050565b60006137e88261383e565b9050919050565b60008115159050919050565b6000819050919050565b60008190506138138261402b565b919050565b60008190506138268261403f565b919050565b600081905061383982614053565b919050565b600073ffffffffffffffffffffffffffffffffffffffff82169050919050565b6000819050919050565b600060ff82169050919050565b600061388082613805565b9050919050565b600061389282613818565b9050919050565b60006138a48261382b565b9050919050565b60006138b682613868565b9050919050565b82818337600083830152505050565b60005b838110156138ea5780820151818401526020810190506138cf565b838111156138f9576000848401525b50505050565b6000600282049050600182168061391757607f821691505b6020821081141561392b5761392a613a42565b5b50919050565b61393a82613aa0565b810181811067ffffffffffffffff8211171561395957613958613a71565b5b80604052505050565b600061396d8261385e565b91507fffffffffffffffffffffffffffffffffffffffffffffffffffffffffffffffff8214156139a05761399f6139b5565b5b600182019050919050565b6000819050919050565b7f4e487b7100000000000000000000000000000000000000000000000000000000600052601160045260246000fd5b7f4e487b7100000000000000000000000000000000000000000000000000000000600052601260045260246000fd5b7f4e487b7100000000000000000000000000000000000000000000000000000000600052602160045260246000fd5b7f4e487b7100000000000000000000000000000000000000000000000000000000600052602260045260246000fd5b7f4e487b7100000000000000000000000000000000000000000000000000000000600052604160045260246000fd5b6000601f19601f8301169050919050565b7f537068696e784d6f64756c653a20696e76616c6964206c65616620696e646578600082015250565b7f537068696e784d6f64756c653a2063616c6c65722069736e277420657865637560008201527f746f720000000000000000000000000000000000000000000000000000000000602082015250565b7f1901000000000000000000000000000000000000000000000000000000000000600082015250565b7f537068696e784d6f64756c653a206e6f206c656176657320746f20657865637560008201527f7465000000000000000000000000000000000000000000000000000000000000602082015250565b7f537068696e784d6f64756c653a20696e76616c696420726f6f74000000000000600082015250565b7f537068696e784d6f64756c653a206e6f2061637469766520726f6f7400000000600082015250565b7f537068696e784d6f64756c653a206578747261206c6561766573206e6f74206160008201527f6c6c6f7765640000000000000000000000000000000000000000000000000000602082015250565b7f537068696e784d6f64756c653a20696e76616c6964206c656166207479706500600082015250565b7f537068696e784d6f64756c653a20696e76616c696420636861696e2069640000600082015250565b7f537068696e784d6f64756c653a20696e76616c6964205361666520766572736960008201527f6f6e000000000000000000000000000000000000000000000000000000000000602082015250565b7f537068696e784d6f64756c653a20696e73756666696369656e74206761730000600082015250565b7f496e697469616c697a61626c653a20636f6e747261637420697320616c72656160008201527f647920696e697469616c697a6564000000000000000000000000000000000000602082015250565b7f537068696e784d6f64756c653a20726f6f7420616c7265616479207573656400600082015250565b7f537068696e784d6f64756c653a20696e76616c6964205361666520616464726560008201527f7373000000000000000000000000000000000000000000000000000000000000602082015250565b7f537068696e784d6f64756c653a206e6f20726f6f7420746f2063616e63656c00600082015250565b7f537068696e784d6f64756c653a20616374697665206d65726b6c6520726f6f74600082015250565b7f537068696e784d6f64756c653a20696e76616c696420726f6f7420746f20636160008201527f6e63656c00000000000000000000000000000000000000000000000000000000602082015250565b7f537068696e784d6f64756c653a20696e76616c6964206e6f6e63650000000000600082015250565b7f537068696e784d6f64756c653a206c65616620636861696e206964206d75737460008201527f2062652030000000000000000000000000000000000000000000000000000000602082015250565b7f537068696e784d6f64756c653a206e756d4c65617665732063616e6e6f74206260008201527f6520300000000000000000000000000000000000000000000000000000000000602082015250565b7f537068696e784d6f64756c653a20696e76616c6964205361666550726f787900600082015250565b7f537068696e784d6f64756c653a206661696c656420746f20766572696679206c60008201527f6561660000000000000000000000000000000000000000000000000000000000602082015250565b7f5265656e7472616e637947756172643a207265656e7472616e742063616c6c00600082015250565b7f537068696e784d6f64756c653a20696e76616c696420537068696e784d6f647560008201527f6c6550726f787900000000000000000000000000000000000000000000000000602082015250565b6005811061403c5761403b613a13565b5b50565b600281106140505761404f613a13565b5b50565b6003811061406457614063613a13565b5b50565b614070816137cb565b811461407b57600080fd5b50565b614087816137dd565b811461409257600080fd5b50565b61409e816137ef565b81146140a957600080fd5b50565b6140b5816137fb565b81146140c057600080fd5b50565b600281106140d057600080fd5b50565b600381106140e057600080fd5b50565b6140ec8161385e565b81146140f757600080fd5b5056fea26469706673582212204e7cbc9883288763a0a52ee490bf0d3f2a67d12b48b8b730701eae2220c2e67c64736f6c63430008040033","linkReferences":{}},"methodIdentifiers":{"VERSION()":"ffa1ad74","activeMerkleRoot()":"97c4f589","approve(bytes32,((uint256,uint256,uint8,bytes),bytes32[]),bytes)":"8f38f835","cancel(bytes32,((uint256,uint256,uint8,bytes),bytes32[]),bytes)":"29cd7aa9","execute(((uint256,uint256,uint8,bytes),bytes32[])[])":"e65ec46d","initialize(address)":"c4d66de8","merkleRootNonce()":"0a04d9e6","merkleRootStates(bytes32)":"72552e49","safeProxy()":"783c5679"},"storageLayout":{"storage":[{"astId":13037,"contract":"contracts/core/SphinxModule.sol:SphinxModule","label":"_status","offset":0,"slot":"0","type":"t_uint256"},{"astId":12864,"contract":"contracts/core/SphinxModule.sol:SphinxModule","label":"_initialized","offset":0,"slot":"1","type":"t_uint8"},{"astId":12867,"contract":"contracts/core/SphinxModule.sol:SphinxModule","label":"_initializing","offset":1,"slot":"1","type":"t_bool"},{"astId":243,"contract":"contracts/core/SphinxModule.sol:SphinxModule","label":"merkleRootStates","offset":0,"slot":"2","type":"t_mapping(t_bytes32,t_struct(MerkleRootState)153_storage)"},{"astId":247,"contract":"contracts/core/SphinxModule.sol:SphinxModule","label":"merkleRootNonce","offset":0,"slot":"3","type":"t_uint256"},{"astId":251,"contract":"contracts/core/SphinxModule.sol:SphinxModule","label":"activeMerkleRoot","offset":0,"slot":"4","type":"t_bytes32"},{"astId":255,"contract":"contracts/core/SphinxModule.sol:SphinxModule","label":"safeProxy","offset":0,"slot":"5","type":"t_address_payable"}],"types":{"t_address":{"encoding":"inplace","label":"address","numberOfBytes":"20"},"t_address_payable":{"encoding":"inplace","label":"address payable","numberOfBytes":"20"},"t_bool":{"encoding":"inplace","label":"bool","numberOfBytes":"1"},"t_bytes32":{"encoding":"inplace","label":"bytes32","numberOfBytes":"32"},"t_enum(MerkleRootStatus)159":{"encoding":"inplace","label":"enum MerkleRootStatus","numberOfBytes":"1"},"t_mapping(t_bytes32,t_struct(MerkleRootState)153_storage)":{"encoding":"mapping","key":"t_bytes32","label":"mapping(bytes32 => struct MerkleRootState)","numberOfBytes":"32","value":"t_struct(MerkleRootState)153_storage"},"t_string_storage":{"encoding":"bytes","label":"string","numberOfBytes":"32"},"t_struct(MerkleRootState)153_storage":{"encoding":"inplace","label":"struct MerkleRootState","numberOfBytes":"128","members":[{"astId":141,"contract":"contracts/core/SphinxModule.sol:SphinxModule","label":"numLeaves","offset":0,"slot":"0","type":"t_uint256"},{"astId":143,"contract":"contracts/core/SphinxModule.sol:SphinxModule","label":"leavesExecuted","offset":0,"slot":"1","type":"t_uint256"},{"astId":145,"contract":"contracts/core/SphinxModule.sol:SphinxModule","label":"uri","offset":0,"slot":"2","type":"t_string_storage"},{"astId":147,"contract":"contracts/core/SphinxModule.sol:SphinxModule","label":"executor","offset":0,"slot":"3","type":"t_address"},{"astId":150,"contract":"contracts/core/SphinxModule.sol:SphinxModule","label":"status","offset":20,"slot":"3","type":"t_enum(MerkleRootStatus)159"},{"astId":152,"contract":"contracts/core/SphinxModule.sol:SphinxModule","label":"arbitraryChain","offset":21,"slot":"3","type":"t_bool"}]},"t_uint256":{"encoding":"inplace","label":"uint256","numberOfBytes":"32"},"t_uint8":{"encoding":"inplace","label":"uint8","numberOfBytes":"1"}}},"id":2}