{"abi":[{"type":"constructor","inputs":[{"name":"_owner","type":"address","internalType":"address"}],"stateMutability":"nonpayable"},{"type":"function","name":"DEFAULT_ADMIN_ROLE","inputs":[],"outputs":[{"name":"","type":"bytes32","internalType":"bytes32"}],"stateMutability":"view"},{"type":"function","name":"RELAYER_ROLE","inputs":[],"outputs":[{"name":"","type":"bytes32","internalType":"bytes32"}],"stateMutability":"view"},{"type":"function","name":"exec","inputs":[{"name":"_to","type":"address","internalType":"address payable"},{"name":"_data","type":"bytes","internalType":"bytes"}],"outputs":[{"name":"","type":"bytes","internalType":"bytes"}],"stateMutability":"payable"},{"type":"function","name":"getRoleAdmin","inputs":[{"name":"role","type":"bytes32","internalType":"bytes32"}],"outputs":[{"name":"","type":"bytes32","internalType":"bytes32"}],"stateMutability":"view"},{"type":"function","name":"grantRole","inputs":[{"name":"role","type":"bytes32","internalType":"bytes32"},{"name":"account","type":"address","internalType":"address"}],"outputs":[],"stateMutability":"nonpayable"},{"type":"function","name":"hasRole","inputs":[{"name":"role","type":"bytes32","internalType":"bytes32"},{"name":"account","type":"address","internalType":"address"}],"outputs":[{"name":"","type":"bool","internalType":"bool"}],"stateMutability":"view"},{"type":"function","name":"renounceRole","inputs":[{"name":"role","type":"bytes32","internalType":"bytes32"},{"name":"account","type":"address","internalType":"address"}],"outputs":[],"stateMutability":"nonpayable"},{"type":"function","name":"revokeRole","inputs":[{"name":"role","type":"bytes32","internalType":"bytes32"},{"name":"account","type":"address","internalType":"address"}],"outputs":[],"stateMutability":"nonpayable"},{"type":"function","name":"supportsInterface","inputs":[{"name":"interfaceId","type":"bytes4","internalType":"bytes4"}],"outputs":[{"name":"","type":"bool","internalType":"bool"}],"stateMutability":"view"},{"type":"event","name":"Called","inputs":[{"name":"relayer","type":"address","indexed":true,"internalType":"address"},{"name":"to","type":"address","indexed":true,"internalType":"address payable"},{"name":"value","type":"uint256","indexed":false,"internalType":"uint256"},{"name":"dataHash","type":"bytes32","indexed":true,"internalType":"bytes32"}],"anonymous":false},{"type":"event","name":"RoleAdminChanged","inputs":[{"name":"role","type":"bytes32","indexed":true,"internalType":"bytes32"},{"name":"previousAdminRole","type":"bytes32","indexed":true,"internalType":"bytes32"},{"name":"newAdminRole","type":"bytes32","indexed":true,"internalType":"bytes32"}],"anonymous":false},{"type":"event","name":"RoleGranted","inputs":[{"name":"role","type":"bytes32","indexed":true,"internalType":"bytes32"},{"name":"account","type":"address","indexed":true,"internalType":"address"},{"name":"sender","type":"address","indexed":true,"internalType":"address"}],"anonymous":false},{"type":"event","name":"RoleRevoked","inputs":[{"name":"role","type":"bytes32","indexed":true,"internalType":"bytes32"},{"name":"account","type":"address","indexed":true,"internalType":"address"},{"name":"sender","type":"address","indexed":true,"internalType":"address"}],"anonymous":false}],"bytecode":{"object":"0x60806040523480156200001157600080fd5b506040516200194938038062001949833981810160405281019062000037919062000247565b60018081905550600073ffffffffffffffffffffffffffffffffffffffff168173ffffffffffffffffffffffffffffffffffffffff161415620000b1576040517f08c379a0000000000000000000000000000000000000000000000000000000008152600401620000a8906200029a565b60405180910390fd5b620000c66000801b82620000cd60201b60201c565b506200036a565b620000df8282620001be60201b60201c565b620001ba57600160008084815260200190815260200160002060000160008373ffffffffffffffffffffffffffffffffffffffff1673ffffffffffffffffffffffffffffffffffffffff16815260200190815260200160002060006101000a81548160ff0219169083151502179055506200015f6200022860201b60201c565b73ffffffffffffffffffffffffffffffffffffffff168173ffffffffffffffffffffffffffffffffffffffff16837f2f8788117e7eff1d82e926ec794901d17c78024a50270940304540a733656f0d60405160405180910390a45b5050565b600080600084815260200190815260200160002060000160008373ffffffffffffffffffffffffffffffffffffffff1673ffffffffffffffffffffffffffffffffffffffff16815260200190815260200160002060009054906101000a900460ff16905092915050565b600033905090565b600081519050620002418162000350565b92915050565b6000602082840312156200025a57600080fd5b60006200026a8482850162000230565b91505092915050565b600062000282602a83620002bc565b91506200028f8262000301565b604082019050919050565b60006020820190508181036000830152620002b58162000273565b9050919050565b600082825260208201905092915050565b6000620002da82620002e1565b9050919050565b600073ffffffffffffffffffffffffffffffffffffffff82169050919050565b7f4d616e61676564536572766963653a2061646d696e2063616e6e6f742062652060008201527f6164647265737328302900000000000000000000000000000000000000000000602082015250565b6200035b81620002cd565b81146200036757600080fd5b50565b6115cf806200037a6000396000f3fe6080604052600436106100865760003560e01c806391d148541161005957806391d1485414610157578063926d7d7f14610194578063a217fddf146101bf578063be6002c2146101ea578063d547741f1461021a57610086565b806301ffc9a71461008b578063248a9ca3146100c85780632f2ff15d1461010557806336568abe1461012e575b600080fd5b34801561009757600080fd5b506100b260048036038101906100ad9190610dd7565b610243565b6040516100bf919061103d565b60405180910390f35b3480156100d457600080fd5b506100ef60048036038101906100ea9190610d72565b6102bd565b6040516100fc9190611058565b60405180910390f35b34801561011157600080fd5b5061012c60048036038101906101279190610d9b565b6102dc565b005b34801561013a57600080fd5b5061015560048036038101906101509190610d9b565b6102fd565b005b34801561016357600080fd5b5061017e60048036038101906101799190610d9b565b610380565b60405161018b919061103d565b60405180910390f35b3480156101a057600080fd5b506101a96103ea565b6040516101b69190611058565b60405180910390f35b3480156101cb57600080fd5b506101d461040e565b6040516101e19190611058565b60405180910390f35b61020460048036038101906101ff9190610d1a565b610415565b6040516102119190611073565b60405180910390f35b34801561022657600080fd5b50610241600480360381019061023c9190610d9b565b61060f565b005b60007f7965db0b000000000000000000000000000000000000000000000000000000007bffffffffffffffffffffffffffffffffffffffffffffffffffffffff1916827bffffffffffffffffffffffffffffffffffffffffffffffffffffffff191614806102b657506102b582610630565b5b9050919050565b6000806000838152602001908152602001600020600101549050919050565b6102e5826102bd565b6102ee8161069a565b6102f883836106ae565b505050565b61030561078e565b73ffffffffffffffffffffffffffffffffffffffff168173ffffffffffffffffffffffffffffffffffffffff1614610372576040517f08c379a000000000000000000000000000000000000000000000000000000000815260040161036990611137565b60405180910390fd5b61037c8282610796565b5050565b600080600084815260200190815260200160002060000160008373ffffffffffffffffffffffffffffffffffffffff1673ffffffffffffffffffffffffffffffffffffffff16815260200190815260200160002060009054906101000a900460ff16905092915050565b7fe2b7fb3b832174769106daebcfd6d1970523240dda11281102db9363b83b0dc481565b6000801b81565b606061041f610877565b7fe2b7fb3b832174769106daebcfd6d1970523240dda11281102db9363b83b0dc46104498161069a565b600073ffffffffffffffffffffffffffffffffffffffff168573ffffffffffffffffffffffffffffffffffffffff1614156104b9576040517f08c379a00000000000000000000000000000000000000000000000000000000081526004016104b0906110f7565b60405180910390fd5b83836040516104c9929190610fea565b60405180910390208573ffffffffffffffffffffffffffffffffffffffff163373ffffffffffffffffffffffffffffffffffffffff167f572f161235911da04685a68c06adf558fc7e4a36909dca394650e0adc19cc93d3460405161052e9190611157565b60405180910390a46000808673ffffffffffffffffffffffffffffffffffffffff16348787604051610561929190610fea565b60006040518083038185875af1925050503d806000811461059e576040519150601f19603f3d011682016040523d82523d6000602084013e6105a3565b606091505b5091509150816105fa576000815114156105f2576040517f08c379a00000000000000000000000000000000000000000000000000000000081526004016105e9906110d7565b60405180910390fd5b805181602001fd5b8093505050506106086108c7565b9392505050565b610618826102bd565b6106218161069a565b61062b8383610796565b505050565b60007f01ffc9a7000000000000000000000000000000000000000000000000000000007bffffffffffffffffffffffffffffffffffffffffffffffffffffffff1916827bffffffffffffffffffffffffffffffffffffffffffffffffffffffff1916149050919050565b6106ab816106a661078e565b6108d0565b50565b6106b88282610380565b61078a57600160008084815260200190815260200160002060000160008373ffffffffffffffffffffffffffffffffffffffff1673ffffffffffffffffffffffffffffffffffffffff16815260200190815260200160002060006101000a81548160ff02191690831515021790555061072f61078e565b73ffffffffffffffffffffffffffffffffffffffff168173ffffffffffffffffffffffffffffffffffffffff16837f2f8788117e7eff1d82e926ec794901d17c78024a50270940304540a733656f0d60405160405180910390a45b5050565b600033905090565b6107a08282610380565b1561087357600080600084815260200190815260200160002060000160008373ffffffffffffffffffffffffffffffffffffffff1673ffffffffffffffffffffffffffffffffffffffff16815260200190815260200160002060006101000a81548160ff02191690831515021790555061081861078e565b73ffffffffffffffffffffffffffffffffffffffff168173ffffffffffffffffffffffffffffffffffffffff16837ff6391f5c32d9c69d2a47ea670b442974b53935d1edc7fd64eb21e047a839171b60405160405180910390a45b5050565b600260015414156108bd576040517f08c379a00000000000000000000000000000000000000000000000000000000081526004016108b490611117565b60405180910390fd5b6002600181905550565b60018081905550565b6108da8282610380565b610951576108e781610955565b6108f58360001c6020610982565b604051602001610906929190611003565b6040516020818303038152906040526040517f08c379a00000000000000000000000000000000000000000000000000000000081526004016109489190611095565b60405180910390fd5b5050565b606061097b8273ffffffffffffffffffffffffffffffffffffffff16601460ff16610982565b9050919050565b6060600060028360026109959190611216565b61099f91906111c0565b67ffffffffffffffff8111156109de577f4e487b7100000000000000000000000000000000000000000000000000000000600052604160045260246000fd5b6040519080825280601f01601f191660200182016040528015610a105781602001600182028036833780820191505090505b5090507f300000000000000000000000000000000000000000000000000000000000000081600081518110610a6e577f4e487b7100000000000000000000000000000000000000000000000000000000600052603260045260246000fd5b60200101907effffffffffffffffffffffffffffffffffffffffffffffffffffffffffffff1916908160001a9053507f780000000000000000000000000000000000000000000000000000000000000081600181518110610af8577f4e487b7100000000000000000000000000000000000000000000000000000000600052603260045260246000fd5b60200101907effffffffffffffffffffffffffffffffffffffffffffffffffffffffffffff1916908160001a90535060006001846002610b389190611216565b610b4291906111c0565b90505b6001811115610c2e577f3031323334353637383961626364656600000000000000000000000000000000600f861660108110610baa577f4e487b7100000000000000000000000000000000000000000000000000000000600052603260045260246000fd5b1a60f81b828281518110610be7577f4e487b7100000000000000000000000000000000000000000000000000000000600052603260045260246000fd5b60200101907effffffffffffffffffffffffffffffffffffffffffffffffffffffffffffff1916908160001a905350600485901c945080610c2790611342565b9050610b45565b5060008414610c72576040517f08c379a0000000000000000000000000000000000000000000000000000000008152600401610c69906110b7565b60405180910390fd5b8091505092915050565b600081359050610c8b8161153d565b92915050565b600081359050610ca081611554565b92915050565b600081359050610cb58161156b565b92915050565b600081359050610cca81611582565b92915050565b60008083601f840112610ce257600080fd5b8235905067ffffffffffffffff811115610cfb57600080fd5b602083019150836001820283011115610d1357600080fd5b9250929050565b600080600060408486031215610d2f57600080fd5b6000610d3d86828701610c91565b935050602084013567ffffffffffffffff811115610d5a57600080fd5b610d6686828701610cd0565b92509250509250925092565b600060208284031215610d8457600080fd5b6000610d9284828501610ca6565b91505092915050565b60008060408385031215610dae57600080fd5b6000610dbc85828601610ca6565b9250506020610dcd85828601610c7c565b9150509250929050565b600060208284031215610de957600080fd5b6000610df784828501610cbb565b91505092915050565b610e0981611294565b82525050565b610e18816112a0565b82525050565b6000610e2a8385611199565b9350610e37838584611300565b82840190509392505050565b6000610e4e82611172565b610e588185611188565b9350610e6881856020860161130f565b610e718161139b565b840191505092915050565b6000610e878261117d565b610e9181856111a4565b9350610ea181856020860161130f565b610eaa8161139b565b840191505092915050565b6000610ec08261117d565b610eca81856111b5565b9350610eda81856020860161130f565b80840191505092915050565b6000610ef36020836111a4565b9150610efe826113ac565b602082019050919050565b6000610f16602d836111a4565b9150610f21826113d5565b604082019050919050565b6000610f396024836111a4565b9150610f4482611424565b604082019050919050565b6000610f5c6017836111b5565b9150610f6782611473565b601782019050919050565b6000610f7f601f836111a4565b9150610f8a8261149c565b602082019050919050565b6000610fa26011836111b5565b9150610fad826114c5565b601182019050919050565b6000610fc5602f836111a4565b9150610fd0826114ee565b604082019050919050565b610fe4816112f6565b82525050565b6000610ff7828486610e1e565b91508190509392505050565b600061100e82610f4f565b915061101a8285610eb5565b915061102582610f95565b91506110318284610eb5565b91508190509392505050565b60006020820190506110526000830184610e00565b92915050565b600060208201905061106d6000830184610e0f565b92915050565b6000602082019050818103600083015261108d8184610e43565b905092915050565b600060208201905081810360008301526110af8184610e7c565b905092915050565b600060208201905081810360008301526110d081610ee6565b9050919050565b600060208201905081810360008301526110f081610f09565b9050919050565b6000602082019050818103600083015261111081610f2c565b9050919050565b6000602082019050818103600083015261113081610f72565b9050919050565b6000602082019050818103600083015261115081610fb8565b9050919050565b600060208201905061116c6000830184610fdb565b92915050565b600081519050919050565b600081519050919050565b600082825260208201905092915050565b600081905092915050565b600082825260208201905092915050565b600081905092915050565b60006111cb826112f6565b91506111d6836112f6565b9250827fffffffffffffffffffffffffffffffffffffffffffffffffffffffffffffffff0382111561120b5761120a61136c565b5b828201905092915050565b6000611221826112f6565b915061122c836112f6565b9250817fffffffffffffffffffffffffffffffffffffffffffffffffffffffffffffffff04831182151516156112655761126461136c565b5b828202905092915050565b600061127b826112d6565b9050919050565b600061128d826112d6565b9050919050565b60008115159050919050565b6000819050919050565b60007fffffffff0000000000000000000000000000000000000000000000000000000082169050919050565b600073ffffffffffffffffffffffffffffffffffffffff82169050919050565b6000819050919050565b82818337600083830152505050565b60005b8381101561132d578082015181840152602081019050611312565b8381111561133c576000848401525b50505050565b600061134d826112f6565b915060008214156113615761136061136c565b5b600182039050919050565b7f4e487b7100000000000000000000000000000000000000000000000000000000600052601160045260246000fd5b6000601f19601f8301169050919050565b7f537472696e67733a20686578206c656e67746820696e73756666696369656e74600082015250565b7f4d616e61676564536572766963653a205472616e73616374696f6e207265766560008201527f727465642073696c656e746c7900000000000000000000000000000000000000602082015250565b7f4d616e61676564536572766963653a207461726765742069732061646472657360008201527f7328302900000000000000000000000000000000000000000000000000000000602082015250565b7f416363657373436f6e74726f6c3a206163636f756e7420000000000000000000600082015250565b7f5265656e7472616e637947756172643a207265656e7472616e742063616c6c00600082015250565b7f206973206d697373696e6720726f6c6520000000000000000000000000000000600082015250565b7f416363657373436f6e74726f6c3a2063616e206f6e6c792072656e6f756e636560008201527f20726f6c657320666f722073656c660000000000000000000000000000000000602082015250565b61154681611270565b811461155157600080fd5b50565b61155d81611282565b811461156857600080fd5b50565b611574816112a0565b811461157f57600080fd5b50565b61158b816112aa565b811461159657600080fd5b5056fea2646970667358221220e671c3b1c46e395f1d08f7f9c46e9e1a8e6402fd5dddf573a4c24d70e925ea4a64736f6c63430008040033","linkReferences":{}},"methodIdentifiers":{"DEFAULT_ADMIN_ROLE()":"a217fddf","RELAYER_ROLE()":"926d7d7f","exec(address,bytes)":"be6002c2","getRoleAdmin(bytes32)":"248a9ca3","grantRole(bytes32,address)":"2f2ff15d","hasRole(bytes32,address)":"91d14854","renounceRole(bytes32,address)":"36568abe","revokeRole(bytes32,address)":"d547741f","supportsInterface(bytes4)":"01ffc9a7"},"storageLayout":{"storage":[{"astId":12413,"contract":"contracts/core/ManagedService.sol:ManagedService","label":"_roles","offset":0,"slot":"0","type":"t_mapping(t_bytes32,t_struct(RoleData)12408_storage)"},{"astId":13037,"contract":"contracts/core/ManagedService.sol:ManagedService","label":"_status","offset":0,"slot":"1","type":"t_uint256"}],"types":{"t_address":{"encoding":"inplace","label":"address","numberOfBytes":"20"},"t_bool":{"encoding":"inplace","label":"bool","numberOfBytes":"1"},"t_bytes32":{"encoding":"inplace","label":"bytes32","numberOfBytes":"32"},"t_mapping(t_address,t_bool)":{"encoding":"mapping","key":"t_address","label":"mapping(address => bool)","numberOfBytes":"32","value":"t_bool"},"t_mapping(t_bytes32,t_struct(RoleData)12408_storage)":{"encoding":"mapping","key":"t_bytes32","label":"mapping(bytes32 => struct AccessControl.RoleData)","numberOfBytes":"32","value":"t_struct(RoleData)12408_storage"},"t_struct(RoleData)12408_storage":{"encoding":"inplace","label":"struct AccessControl.RoleData","numberOfBytes":"64","members":[{"astId":12405,"contract":"contracts/core/ManagedService.sol:ManagedService","label":"members","offset":0,"slot":"0","type":"t_mapping(t_address,t_bool)"},{"astId":12407,"contract":"contracts/core/ManagedService.sol:ManagedService","label":"adminRole","offset":0,"slot":"1","type":"t_bytes32"}]},"t_uint256":{"encoding":"inplace","label":"uint256","numberOfBytes":"32"}}},"id":0}